:020000040800F2
:10000000B80C0020010100087D4400083D370008BD
:10001000C5430008750B0008755200080000000079
:10002000000000000000000000000000AD4E0008CD
:10003000C50D0008000000007D4C0008215000089C
:100040001B0100081B0100081B0100081B01000820
:100050001B0100081B010008C90D00081B01000856
:100060001B0100081B0100081B0100081B01000800
:100070001B0100081B0100081B0100081B010008F0
:100080001B0100081B0100081B0100081B010008E0
:100090001B0100081B0100081B0100081B010008D0
:1000A0001B010008295000081B0100081B01000863
:1000B00035500008415000081B0100081B010008D2
:1000C0001B0100081B0100081B0100081B010008A0
:1000D0001B0100081B010008695200081B010008F1
:1000E0001B0100081B0100081B010008DFF80CD0F1
:1000F00000F0D6FC00480047D1610008B80C002091
:100100000648804706480047FEE7FEE7FEE7FEE7B1
:10011000FEE7FEE7FEE7FEE7FEE7FEE72550000804
:10012000ED0000082DE9F0410024061B254671F181
:10013000000605DA01240027D0EB070067EB010178
:10014000161E73F1000605DA0027D2EB070201251F
:1001500067EB030300F04FFB86460E4617469C46AE
:10016000AC4204D00025D0EB050E65EB010624B1AE
:100170000020D2EB000760EB030C704631463A4694
:100180006346BDE8F081421C10F8011B0029FBD139
:10019000801A704730B504460020034600E05B1C1F
:1001A000934203D2E05CCD5C401BF8D030BDF0B48C
:1001B00080EA0102D40F4200B2EB410F02D20246A4
:1001C000084611464A0042D0C30DDDB2C1F3C75202
:1001D000AD1A202D35DAC1F3160141F4000204B145
:1001E0005242C5F1200602FA06F12A411044B3EB4F
:1001F000D05F23D0C4B1012DA0EBC35009DCF0BC0B
:100200004FF0004202EAC352DBB200F5000000F0FA
:100210005DBB400000F1807000EBC350A0F1807026
:1002200040EAD170490009E0490841EAC071A0EBF9
:10023000C35000F50000400800EBC350F0BC00F0D4
:100240003CBB6142012202EB4101001BF6E7F0BC1E
:10025000704781F00041AAE780F00040A7E780EAFC
:10026000010210B502F00043400022D04A001FD026
:10027000010E01EB1261C0F35600C2F3560240F4C6
:10028000000042F40002A0FB022000047F391404A5
:1002900000D0401C50EA124001D44000491EC2B2B6
:1002A0000C0604EBD010401C4008802A02D003E06A
:1002B000002010BD20F00100002900DA00201843C2
:1002C00010BD30B480EA010202F0004530F0004277
:1002D00021F0004013D090B1C30DD40DC2F316012C
:1002E000C0F31600E41A41F4000140F400027D342A
:1002F000914201D3641C00E04900002C02DA30BCBA
:10030000002070474FF400000023914201D3891A66
:10031000034340084FEA4101F7D151B1914202D164
:100320004FF0004105E002D24FF0010101E06FF013
:10033000010103EBC450284430BC00F0BEBA2DE9E3
:10034000FE4F804681EA0300C00F0C46009021F06A
:10035000004123F00045B8EB0200A94105D2404618
:10036000214690461C460B46024623F000401043AF
:1003700047D0270DC7F30A00C3F30A510290401A71
:10038000019040286BDAC3F3130040F4801B0098FF
:10039000924620B10023D2EB030A63EB0B0B0198CA
:1003A0005946C0F14002504600F056FA06460D4646
:1003B00050465946019A00F06EFA10EB0800614170
:1003C000002487EA115284EAE7731A4340D0009A66
:1003D00062B3019A012A4FEA075215DC001B61EB58
:1003E00002014FF0004202EA0752CDE90042001C30
:1003F00041F5801132462B4600F0A5FA03B0BDE866
:10040000F08F40462146F9E7001B61EB0201001C1A
:1004100041F5801300185B412018A2F5001747EB47
:10042000030140EAD570B6196D4111E06D084FEA3D
:10043000360645EAC0754FEA0752001B61EB020120
:10044000001C41F5801149084FEA30000019514164
:1004500032462B4603B0BDE8F04F00F065BA009875
:10046000012240000023D0EB020263EBE07300980E
:1004700021464FEAE074B8EB000061EB0401E9E7C4
:1004800083F000435BE781F0004158E72DE9FE4F20
:1004900081EA030404F0004421F0004100944FF08D
:1004A000000B23F0004350EA01045ED052EA03043B
:1004B0005BD0C3F30A54C1F30A552C44A4F2F334BD
:1004C0000194A0FB0254C1F3130141F48011C3F362
:1004D000130343F4801301FB024400FB034E840A20
:1004E000970A44EA815447EA8357A4FB07680295B8
:1004F0008D0A05FB07854FEA932C04FB0C54270556
:10050000029D4FEA065847EA1637B5EB08056EEB31
:10051000070C870E920E47EA811742EA8312A7FB67
:100520000201B6EB0B0164EB00042B0D43EA0C3324
:100530005E1844EB1C50DA465146E7FB0201C5F356
:1005400013044FEA0B3343EA14534FEA0432019C7D
:1005500043EA0603A4F10C040294009CCDE900B424
:1005600000F0F1F903B0BDE8F08F00200146F9E793
:100570002DE9F04D81EA030404F0004B21F0004521
:1005800014464FF0000A23F0004150EA050220D043
:1005900054EA01021DD0C5F30A570246C5F31303FE
:1005A000C1F31300C1F30A5640F4801543F48013DD
:1005B000A7EB0608101BD64608F2FD3873EB0500C2
:1005C00002D308F1010801E092185B41B8F1000F75
:1005D00003DA00200146BDE8F08D00204FF48011C1
:1005E000064684460EE0171B73EB050705D3121B66
:1005F00063EB050306434CEA010C49084FEA30005F
:1006000092185B4150EA0107EDD152EA030012D083
:1006100082EA040083EA0501084305D0101BAB41C0
:1006200006D20122002306E000224FF0004302E040
:100630006FF0010253101AEB06004CEB085110EB5F
:100640000A0041EB0B01BDE8F04D00F06DB9002848
:1006500001DBC0F10040002901DBC1F10041814212
:1006600001D80120704700207047002801DBC0F14D
:100670000040002901DBC1F10041814201D201208B
:10068000704700207047002801DBC0F100400029BE
:1006900001DBC1F10041814201D9012070470020F6
:1006A0007047002801DBC0F10040002901DBC1F1E7
:1006B0000041814201D10120704700207047C10FE5
:1006C00080EAE0700844CA079623002100F0FEB8D3
:1006D00096230022114600F0F9B80EB5C10F80EA4A
:1006E000E0700844CA07002140F233438DE80E0051
:1006F0000A460B4600F027F903B000BD00F00042A7
:1007000020F00040C10DC0F3160040F400007F2926
:1007100001DA00207047962903DCC1F19601C84038
:1007200001E096398840002AF4D04042704770B505
:10073000C1F30A5201F000450024C1F3130140F255
:10074000FF3341F480119A4201DA002070BD40F27B
:1007500033439A42A2F2334203DC524200F08BF858
:1007600000E090402C43F1D0404270BD00F00042C8
:1007700030F000400AD0C10D01F56071C0F31600E1
:1007800042EA0151C2084007114370470020014668
:10079000704701F0004330B421F0004150EA0102FB
:1007A00006D00A0DA2F56072C1F31301002A02DC23
:1007B00030BC00207047440F44EAC104C100E01877
:1007C00030BC00EBC25000F078B830B50B460146A3
:1007D00000202022012409E021FA02F59D4205D3E0
:1007E00003FA02F5491B04FA02F52844151EA2F18A
:1007F0000102F1DC30BD2DE9F05F05460020924694
:100800009B4688460646814640241BE028464146D2
:100810004746224600F02FF853465A46C01A9141E7
:1008200010D311461846224600F016F82D1A67EB31
:1008300001084F4622460120002100F00DF817EB79
:1008400000094E41201EA4F10104DFDC4846314678
:100850002A464346BDE8F09F202A04DB203A00FAEE
:1008600002F1002070479140C2F1200320FA03F307
:10087000194390407047202A04DB203A21FA02F005
:100880000021704721FA02F3D040C2F120029140CA
:10089000084319467047202A06DBCB17203A41FA55
:1008A00002F043EAE07306E041FA02F3D040C2F1FD
:1008B000200291400843194670470029A8BF70479D
:1008C000401C490008BF20F00100704710B4B0FA86
:1008D00080FC00FA0CF050EA010404BF10BC704721
:1008E00049B1CCF1200421FA04F411FA0CF118BF3B
:1008F000012121430843A3EB0C01CB1D4FEA00610A
:100900004FEA102042BF002010BC704700EBC350DC
:1009100010440029A4BF10BC7047401C490008BF08
:1009200020F0010010BC704710B5141E73F10004D4
:1009300008DA401C41F1000192185B411A4301D1D1
:1009400020F0010010BD2DE9F04D92469B4611B1FB
:10095000B1FA81F202E0B0FA80F220329046FFF75D
:100960007BFF04460F4640EA0A0041EA0B0153466A
:100970005A46084313D0114653EA010019D0C8F172
:1009800040025046FFF777FF05460E46504659464F
:100990004246FFF761FF084305D0012004E02046EE
:1009A0003946BDE8F08D0020054346EAE0762C4349
:1009B00037430A986305E40AA0EB08000022FD0A09
:1009C00044EA47540A3002D500200146E9E7010510
:1009D00010196941DDE9084500196941BDE8F04D8C
:1009E000A2E770B521F0004303430CD0C1F30A55D0
:1009F0000024D5EB040564EB0403D617AD1AB3410C
:100A000002DB0020014670BD201841EB025170BD91
:100A1000C1F30A52C1F3130140F2FF3341F48011D4
:100A20009A4202DA00200146704740F233439A426C
:100A3000A2F2334202DC5242FFF71DBFFFF70CBFA8
:100A400030B5041E71F1000404DB4FF00044404255
:100A500064EB0101141E73F1000405DB1C464FF02A
:100A60000043524263EB04038B4208BF824230BD15
:100A700030B5041E71F1000404DB4FF00044404225
:100A800064EB0101141E73F1000405DB1C464FF0FA
:100A90000043524263EB0403994208BF904230BDC9
:100AA0001CB509480090094801900546009C06E0E5
:100AB000E06840F0010394E8070098471034AC4226
:100AC000F6D3FFF717FB0000C49A0008E49A000869
:100AD0002DE9F04D00231A461B1A8A4103DB002042
:100AE0000146BDE8F08DC1F30A52C1F3130141F490
:100AF00080154FF0000BD10702D100186D41521E36
:100B00000027044640F2FF11384601EB620A3E46D8
:100B10008046024600204FF48011FFF7ACFEC21958
:100B20007141BB1846EB0100B4EB030C75EB000CF4
:100B300004D3E41A65EB000517460E46241908F1A4
:100B400001006D4180463428E3DDF91946EB0600CB
:100B5000091BA84103D24FF0FF32134601E00022E7
:100B600013461BEB070046EB0A51BDE8F04DFFF7BB
:100B7000DBBE0000FEE7000070B588B000208DF8F5
:100B800001000DF1010368207521012205F00EFA24
:100B900049F65920C0F6000008F00EF89DF8011043
:100BA000682940F0C58005F0C7FC08B108B070BDE9
:100BB000782006F0C1FE002874D0782005F006FCED
:100BC00000287AD0C82006F013FE00287ED004F05A
:100BD0004DFD002800F08280AC2004F037FF002893
:100BE00000F0858040F2731004F0F0FB002800F064
:100BF0008B80C82004F082FE002800F0918005A8B8
:100C000002A906F041F807283ED101A805F06CFCC6
:100C1000DDE90506079CFFF752FD019D01462846C8
:100C2000FFF71DFBFFF76AFD05903046FFF747FD14
:100C300001462846FFF713FBFFF760FD06902046AC
:100C4000FFF73DFD01462846FFF709FBFFF756FD7C
:100C5000079005A804F08AFE0DF1020005F024FCBF
:100C600002ABBDF802000ECB4143029102FB00F142
:100C70005843049002A8039104F0E0FD49F679205E
:100C8000C0F6000007F098FF012006F0F3FC0028F2
:100C90008CD149F61120C0F6000007F08DFF08B096
:100CA00070BD00BF49F65920C0F6000007F084FF70
:100CB000782005F08BFB002884D122A007F07CFF70
:100CC000C82006F095FD00287FF481AF26A007F02C
:100CD00073FF04F0CBFC00287FF47EAF2CA007F05C
:100CE0006BFFAC2004F0B2FE00287FF47BAF49F626
:100CF0003420C0F6000007F05FFF40F2731004F0EC
:100D000065FB00287FF475AF49F6CA10C0F60000F5
:100D100007F052FFC82004F0F1FD00287FF46FAF08
:100D200049F6EE10C0F6000007F046FF67E700BF87
:100D300002A006F02FFF04F0A9FA00BF49443A25AB
:100D4000580D0A006D70755F636F6E666967757226
:100D5000655F6669666F20636F6D706C6574652092
:100D60002E2E2E2E2E2E0D006D70755F7365745F06
:100D700073616D706C655F7261746520636F6D7017
:100D80006C657465202E2E2E2E2E2E0D0000000078
:100D9000646D705F6C6F61645F6D6F74696F6E5FBF
:100DA0006472697665725F6669726D7761726520DB
:100DB000636F6D706C657465202E2E2E2E2E2E0D99
:100DC0000000000070470000012000F0C7BB0000D9
:100DD000EFF3108072B600BFFEE700002DE9F04F80
:100DE00081B0804603F0F0FF40F6AC01C2F2000192
:100DF000B8F1010F08602FD103F042FF40F2EC0080
:100E0000C2F20000006840F2B01180F00040C2F26F
:100E10000001086040F2F400C2F20000B0F90210D4
:100E2000B0F904404842FFF74AFC40F2B411C2F264
:100E3000000108602046FFF742FC40F2FA01C2F2CE
:100E4000000140F2B812B1F90410C2F200021060C1
:100E50000846FFF734FC1DE1D020452102F070FC6C
:100E60000446D020462102F06BFC40EA0420FFF744
:100E70002FFC40F25C1BC2F2000BCBF82C00D02000
:100E8000472102F05DFC0446D020482102F058FCC6
:100E900040EA0420FFF71CFCCBF83000D0203B21B7
:100EA00002F04EFC0446D0203C2102F049FC40EA0E
:100EB0000420FFF70DFCCBF83400D0203F2102F0D6
:100EC0003FFC0446D020402102F03AFC40EA0427CF
:100ED0003846FFF7FDFBDBE90B548246CBF83800C0
:100EE00028464FF08E41FFF7CEFB00210646CCF29C
:100EF00080712846FFF75BF9814620464FF08E410E
:100F0000002E08BFA946FFF7A2FB38B90021CCF29A
:100F100080712046FFF74BF9CBF83000DBF83450F6
:100F20004FF08E412846FFF7AEFB00210646CCF27B
:100F300080712846FFF73BF90446002E08BF2C4677
:100F4000B7F5004F07D9CFF6FF773846FFF7B7FB65
:100F50008246CBF8380084F00040CBF83400FFF72D
:100F600005FC044650460D46FFF700FC02460B46C2
:100F70002046294607F052FD48F20003C4F26603FA
:100F80000022FFF783FA4DF2F14242F2FB13C5F261
:100F9000C832C4F20903FFF7EBFAFFF7FAFB0021AE
:100FA0000646CBF83C00C4F270114846FFF7FFF844
:100FB00040F2B411C2F200010860FFF7D7FB46F21D
:100FC0006663C4F230034FF06632FFF7D1FAFFF7E1
:100FD000E0FB0746B8F1030FCBF82C0008D0B8F1BE
:100FE000020F40D13046394602F04AFE3BE000BFD6
:100FF00040F23000C2F20000046831462046FFF79C
:101000002EF9FFF7B3FB804689464FF07E5021460C
:10101000FFF71FF9FFF7AAFB8246DBF804000C4636
:10102000FFF7A4FB054638460E46FFF79FFB41F24B
:101030007B4247F6E123C4F2AE72C3F67473FFF746
:1010400025FA2A463346FFF77AF902460B46504600
:101050002146FFF71BFA42464B46FFF770F9FFF7B0
:1010600098FBCBF80400DBF8040040F2B011C2F2A8
:1010700000010860FFF77AFB02460AA00B4606F063
:1010800089FD40F2B811DBF83020DBF83800C2F2FD
:1010900000010A6040F2AC11C2F20001086001B028
:1010A000BDE8F08F25660D0A0000000070B581B024
:1010B0000022009290F82420012A03D10221084640
:1010C00001B070BD4A680123062A02EB820E80F847
:1010D000243007D8D0F800C06FF004030CF13406B8
:1010E0000CE000BFD0F800C00C2A87BF0CF12C0622
:1010F0006FF040030CF130066FF022030EEB030299
:101100001F23346803FA02F50B6824EA050503FA85
:1011100002F22A433260092B03EB43021AD9DCF8AE
:101120000C601E3A072589689540AE43914023F034
:1011300001023143102ACCF80C1015D142F20041C3
:10114000C4F201018C4517D0816A41F0200181620F
:1011500001210AE0DCF81030072689689640B34385
:1011600091401943CCF810100021002280F824206F
:10117000084601B070BD00BF89680902F4D4DCF8EC
:101180000810102B41F40001CCF80810ECD140F20B
:101190003401C2F2000109684DF68362C4F21B32C9
:1011A000A1FB0212910C01EB810149000091009911
:1011B0000029D9D000990139009100990029D3D094
:1011C00000990139009100990029CDD00099013989
:1011D000009100990029C7D0009901390091009928
:1011E00000294FF00001E5D1BFE70000002804BF4F
:1011F00001207047B0B50446806A28B1216888682C
:10120000C0070CD115E000BF0020E06284F8240084
:10121000204600F097F821688868C00709D08868E0
:1012200020F00100886000F0B9FA21688A68D207CE
:1012300026D1A06AC0063AD4A06A41F202129043B5
:101240000230A062E069D4E9013240EA030C531E87
:10125000B3FA83F35D091346B2F5807F18BF2B0202
:10126000207D257B01284CEA45002CD135B3A56AA9
:1012700045F02005A562E56A45F00105E56222E03A
:10128000054602E08868C007D3D000F087FA401B0B
:1012900021680328F6D38868C007F3D0A06A40F01D
:1012A0001000A062E06A40F00100E062A06AA06A5B
:1012B00040F01000A0620120B0BD00BFA56903EBA3
:1012C0004533A3F5C0534D68B2F5807F25F46945D9
:1012D00043EA05034B608B684FF2FD75CFF6E1756D
:1012E00003EA050343EA00038B6001D0012A07D11A
:1012F00022690023CFF6F07303EB025201E000BF36
:101300000022CB6A23F470031A43CA62896840F64C
:10131000FE62CFF61F721140814207D10020E062C9
:10132000A16A012262F30101A162B0BDA06A40F08E
:10133000100020F00200A062E06A40F00100E062CC
:101340000120B0BD80B586B0014640F60040C4F231
:101350000100096800F5C05291424FF00001CDE94B
:101360000411CDE9021101D006B080BD41F218018F
:10137000C4F202010A6842F400720A600A6802F4C8
:1013800000720192019A0A6842F008020A60096834
:1013900001F00801019101990221029103210391B9
:1013A00002A900F0E7F806B080BD0000014690F801
:1013B0002100022816D10868D1E90FC3026822F083
:1013C0000E020260026822F001020260012000FAAF
:1013D00003F2CCF8042081F821000020002281F8DB
:1013E00020207047042088630120002281F82020FB
:1013F0007047000090F82110022923D1026840F2C2
:10140000040C1168C4F2020C21F00E011160136883
:101410002F21C4F202018A4223F00103136015DD7B
:101420003023C4F202039A421CD04423C4F20203C4
:101430009A421BD05823C4F202039A421CD14FF4A3
:10144000803321E004218163012070470823C4F226
:1014500002039A420ED01C23C4F202039A420BD11B
:10146000102311E04FF480730EE000BF4FF480535F
:101470000AE000BF012307E00CF168014FF0807320
:101480008A4208BF4FF480130121CCF8003080F865
:101490002110416B0022002980F8202004BF002089
:1014A000704780B58847002080BD0000012818BF24
:1014B0007047B0B540F2980440F26800C2F20004F0
:1014C000C2F20000817820780029B0FA80F14FEA5A
:1014D000511121703ED0B8BB03F0ACFC606003F04A
:1014E000C7FCA0600220FFF779FC40F2B01040F288
:1014F000B411C2F20000C2F200010968006803F0F2
:10150000DBFED4E90121E060104606F0DBFAE16879
:10151000206140F6A40440F6A8050844C2F2000485
:10152000C2F2000541F6F4212060286003F0A4FE19
:1015300029682060084641F6F42103F09DFE01462B
:101540002068296002F040FF40F21440C4F201001C
:1015500001210160BDE8B0407047000040F2144135
:10156000C4F201010A68024214BF08607047FFF725
:101570009DBF00002DE9F04F82B00E68002E00F0F4
:10158000FD8041F20042C4F20102042340F2004E09
:10159000904208BF03234FF6FF7CC4F2010E009374
:1015A00000240123C1F2100C4FF0000A4FF0000993
:1015B0004BE000BF41F20002C4F20102009F9042E2
:1015C00008BF022704F00C030F229A402BEA020204
:1015D00007FA03F34FEA9A051A4346F825204E68A6
:1015E00040F20C45F202DEF8082054BF22EA08025D
:1015F00042EA0802C4F20105CEF808202A68B302C4
:1016000054BF22EA080242EA08022A60B303DEF865
:10161000042054BF22EA080242EA0802F303CEF88B
:101620000420DEF800204FF0010354BF22EA080234
:1016300042EA0802CEF800200E680AF1010A36FAE2
:101640000AF204F1040400F0998003FA0AFB16EA96
:101650000B08F1D04E68664512DC122E56D8DFE832
:1016600006F0350B4D49555555555555555555555C
:1016700055555545510000BFD1F80C9046E000BFCC
:101680004FF6FF72C1F2210296420FDC0022C1F236
:10169000110296421AD00022C1F21202964215D0CF
:1016A0000022C1F22102964210D02FE00022C1F2A6
:1016B000220296420AD00022C1F23102964205D09F
:1016C0000022C1F23202964220D100BF8A684AB19C
:1016D000012A14BFC0F814B0C0F810B04FF00809C8
:1016E00014E000BF4FF0040910E000BFCA6802F127
:1016F00004090BE04FF0000908E000BFCA6802F1DE
:10170000080903E0CA6802F10C0900BF0246264638
:10171000B8F5807F24BF0432203E17680F25B540FE
:1017200027EA050509FA06F635431560CA79D20697
:101730007FF582AF41F21803C4F202031A68AEF5D6
:101740007E7642F001021A601A6802F001020192EC
:10175000019A2AF0030256F802B040F60002C4F2E1
:101760000102904208D040F60042C4F201029042C9
:101770007FF420AF012725E7002723E702B0BDE86B
:10178000F08F00008068084018BF012070470000FB
:10179000002A08BF090401617047000040F6B0004C
:1017A000C2F200000068704740F2040040F6B00149
:1017B000C2F20000C2F2000100780A68104408601A
:1017C0007047000080B542F20000C4F202000168D8
:1017D00041F010010160032000F0A2F80F2000F09A
:1017E00005F800F027F8002080BD000070B540F239
:1017F0000406C2F2000640F234013278C2F200015F
:101800004FF47A730968B3FBF2F20446B1FBF2F1CC
:10181000084600F01DFC0F2C4FF0010508D838B920
:101820004FF0FF3021460022002500F04DF8746093
:10183000284670BD82B041F21800C4F2020001686F
:10184000022241F001010160016801F001010191F2
:101850000199416841F080514160406800F080503A
:10186000009000980420C4F20100016862F31A613C
:10187000016002B070470000002848BF704700F0C8
:101880001F01012202FA01F11C2202EAD0004EF2ED
:101890008012CEF200028150BFF34F8FBFF36F8FE3
:1018A00070470000002848BF704700F01F01012268
:1018B00002FA01F11C2202EAD0004EF20012CEF22E
:1018C000000281507047000010B54EF60C5CCEF25D
:1018D000000CDCF80030C3F3022E8EF00704042C59
:1018E00028BF0424BEF103034FF0FF3E0EFA04F4B8
:1018F00038BF0023A14399400EFA03F39A431143E2
:1019000000F00F0200F160430901043A03F564435B
:101910006244002848BF02F10C03197010BD00009A
:101920004EF60C51CEF200010A684FF6FF031A4042
:1019300060F30A2242F0806040F0FD70086070475A
:101940002DE9F04182B00446007841F21C06C00740
:10195000C4F202064AD030685FEAC00808D4306892
:1019600040F080503060306800F080500190019865
:1019700047F20007C4F200073868C00512D438687F
:1019800040F480703860FFF709FF05463868C005ED
:1019900008D4FFF703FF401B6428F7D9032002B0E7
:1019A000BDE8F081706810F4407012D0616801F4F5
:1019B000407188420DD0706840F24042C4F2422229
:1019C000012320F4407113600023C007136071608D
:1019D00026D17068616820F440700843B8F1000FA8
:1019E000706003D4306820F0805030602068810738
:1019F00007D556F8181CA26821F44041114346F857
:101A0000181CC00607D556F8180CE16820F48000B1
:101A1000084346F8180C002002B0BDE8F08100BF72
:101A2000FFF7BCFE054641F2883700BF70688007AB
:101A3000CFD4FFF7B3FE401BB8424FF00300F5D9F7
:101A4000EAE70000002804BF012070472DE9F043B9
:101A500081B042F20008C4F202080446D8F800003F
:101A60000D4600F0070081420CD9D8F8000020F0A4
:101A700007002843C8F80000D8F8000000F007006D
:101A8000A8426CD1206841F204098107C4F202091E
:101A900017D5410705D5D9F8001041F4E061C9F820
:101AA0000010010705D5D9F8001041F46051C9F8BC
:101AB0000010D9F80010A26821F0F0011143C9F814
:101AC0000010C00742D1D8F8000000F0070085429E
:101AD0000CD2D8F8000020F007002843C8F8000016
:101AE000D8F8000000F00700A84238D1206841076C
:101AF00007D5D9F80010E26821F4E0611143C9F874
:101B00000010000708D5D9F80000216920F46050C2
:101B100040EAC100C9F80000D9F8002002F00C002A
:101B2000082841F20020C0F27A004DD148F638531F
:101B3000C2F38341C0F60003595CD20338D440F6A7
:101B40000010C0F23D0048433EE000BF606859F815
:101B5000041C022808D0012826D1890306D40120BC
:101B600001B0BDE8F08300BF8901F8D5D9F80010B5
:101B700021F003010843C9F80000FFF70FFE0646F5
:101B800041F28837D9F80000616800F00C00B0EB32
:101B9000810F98D0FFF702FE801BB842F2D90320D4
:101BA00001B0BDE8F08300BF8907D8D5DEE700BFEC
:101BB000D9F8002048F63653C2F34042C0F600037D
:101BC0009A5C4843B0FBF2F0D9F8001048F61E5278
:101BD000C1F30311C0F60002515C40F2340220FA56
:101BE00001F140F20800C2F200000068C2F20002F7
:101BF0001160FFF7FBFD002001B0BDE8F08300009D
:101C000040F2340041F20401C2F20000C4F20201C9
:101C10000068096848F62E52C1F30221C0F600029E
:101C2000515CC8407047000040F2340041F20401AA
:101C3000C2F20000C4F202010068096848F62E52A0
:101C4000C1F3C221C0F60002515CC84070470000D9
:101C5000002804BF012070472DE9F04182B00446FE
:101C6000007841F20006C007C4F202060CD070688A
:101C700000F00C00042840F081803068800303D518
:101C80006068002800F04681207880071BD57068C6
:101C900010F00C0F09D0706800F00C00082840F01C
:101CA00087807068C00300F183803068800703D5A7
:101CB0002069012840F02E813068616920F0F80029
:101CC00040EAC10030602078000713D42078400734
:101CD0002CD4E569002D00F01881706800F00C002C
:101CE000082840F0A780012D40F00481012002B0B7
:101CF000BDE8F081A069002800F084800020C4F2D3
:101D000042200121C0F88014FFF748FD054600BFBE
:101D1000706A800700F1B280FFF740FD401B022887
:101D2000F6D9032002B0BDE8F08100BFF0695FEA98
:101D3000C00808D4F06940F08050F061F06900F00C
:101D400080500090009847F20007C4F200073868FE
:101D5000C00549D4386840F480703860FFF71EFD34
:101D6000054600BF3868C0053ED4FFF717FD401B8D
:101D70006428F7D9032002B0BDE8F081706800F054
:101D80000C00082803D17068C0033FF576AF616886
:101D90003068002900F00C81B1F5A02F00F000811F
:101DA000B1F5803F40F01A8140F480301CE100BF63
:101DB0002069002840F20000C4F2422000F0888030
:101DC00001210160FFF7EAFC054600BF306880078B
:101DD0003FF572AFFFF7E2FC401B0228F6D9032063
:101DE00002B0BDE8F08100BFE168306A002900F070
:101DF0009D80052900F09280012940F0AF8040F0DD
:101E00000100B1E00020C4F242200021C0F880149B
:101E1000FFF7C4FC054600BF706A80077FF556AF28
:101E2000FFF7BCFC401B0228F6D9032002B0BDE836
:101E3000F08100BF0027C4F2422700203866FFF778
:101E4000ADFC022D05460DD13068800140F1DE80E9
:101E5000FFF7A4FC401B02284FF00300F4D902B0A6
:101E6000BDE8F081306880014FD5FFF797FC401B3B
:101E700002284FF00300F5D9F1E700BF40F234002B
:101E8000C2F20000006844F6D351C1F26201A0FB27
:101E90000101480A019000BF00BF0198411E0028BF
:101EA00001913FF413AF00BF0198411E002801913A
:101EB0003FF40CAF00BF0198411E002801913FF490
:101EC00005AF00BF0198411E00280191E4D1FDE655
:101ED00000210160FFF762FC054600BF3068800703
:101EE0007FF5F1AEFFF75AFC401B02284FF00300CC
:101EF000F4D9B4E77068216A00F480328A4209D1CB
:101F0000616A00F47010884204D1002002B0BDE87C
:101F1000F08100BF012002B0BDE8F08140F0040074
:101F20003062306A40F001001EE000BF20F0010086
:101F30003062306A20F004003062FFF72FFC054663
:101F400041F28837306A800720D5FFF727FC401B15
:101F5000B8424FF00300F5D981E700BF20F001003F
:101F60003062306A20F004003062FFF717FC05464B
:101F700041F28837306A800708D4FFF70FFC401B16
:101F8000B842F7D9032002B0BDE8F081B8F1000FE4
:101F90003FF59FAEF06920F08050F06199E600BFF8
:101FA00040F480203060306840F480301CE000BF96
:101FB00020F480303060306820F480203060FFF7FB
:101FC000EDFB0546306880037FF55EAEFFF7E6FB6C
:101FD000401B64284FF00300F4D940E720F4803020
:101FE0003060306820F480203060FFF7D7FB054672
:101FF000306880033FF548AEFFF7D0FB401B6428F4
:10200000F6D9032002B0BDE8F08100BF206AB0F528
:10201000803F05D17168A26821F4003111437160DD
:102020007168626A21F474111143084370600120E1
:102030003866FFF7B3FB0446306880013FF565AFB3
:10204000FFF7ACFB001B02284FF00300F4D906E7B2
:10205000411E0020B0EB116F1CBF012070474EF2F3
:102060001002CEF2000251604EF62351CEF2000172
:10207000F0230B70072190601160704770470000DB
:102080007047000090F83C20012A4FF0020236D041
:1020900010B580F83D200268D2F804E0D2F808C0FC
:1020A0000C682EF07003234340F2FF74C4F2000466
:1020B000A24253600ADCB2F1804F13D040F20043D9
:1020C000C4F200039A420DD011E000BF42F6004373
:1020D000C4F201039A4205D040F60003C4F20003A3
:1020E0009A4204D149682CF0800319439160012180
:1020F000002280F83D1080F83C20BDE810401046DA
:1021000070470000002804BF0120704710B590F808
:102110003D1031B9002180F83C10044600F070F801
:102120002046022180F83D10016840F2FF740B68E0
:10213000C4F2000442F6004CA142C4F2010C15DCCA
:10214000B1F1804F1AD040F20042C4F20002914235
:1021500014D0A14218DCB1F1804F1DD040F20042F2
:10216000C4F20002914217D01AE000BF614505D0C9
:1021700040F60002C4F200029142EAD1826823F0E4
:1021800070031343A142E6DD614505D040F600022D
:10219000C4F20002914203D1026923F44073134355
:1021A000846923F08002D0F804E0C36822436145CB
:1021B0000A60CB62C1F828E002D14269CCF8302035
:1021C00001224A610B69DB0703D00B6923F001038D
:1021D0000B6180F8462080F83E2080F83F2080F890
:1021E000402080F8412080F8422080F8432080F889
:1021F000442080F8452080F83D20002010BD0000DC
:1022000080B582B0006840F60001C4F20001884247
:102210001ED042F60041C4F20101884225D141F2AC
:102220001800C4F202000168002241F4006101605C
:102230000068002100F40060019001981920FFF768
:1022400043FB192002B0BDE88040FFF72BBB00BF65
:1022500041F21800C4F20200416841F004014160FB
:10226000406800F004000090009802B080BD0000BB
:1022700090F83D1001291CBF01207047022180F811
:102280003D10006840F2FF72C168C4F20002904243
:1022900041F00101C16009DCB0F1804F12D040F281
:1022A0000041C4F2000188420CD012E042F6004125
:1022B000C4F20101884205D040F60001C4F20001D9
:1022C000884206D1816801F00701062904BF002079
:1022D0007047016841F00101016000207047000073
:1022E00090F83C20012A4FF002026CD080B580F8B3
:1022F0003D20D0F800C04FF67772DCF8083023EAB2
:102300000202CCF808200B684F2B29DC1F2B45DD7F
:10231000202B46D0302B44D0402B40F0AF80D1F85A
:1023200004E0C968DCF82030DCF8202022F001024B
:10233000CCF82020DCF8182022F0F00242EA01114B
:1023400023F00A0242EA0E02CCF81810CCF8202042
:10235000DCF8081041F0470121F0300128E000BF0F
:102360006F2B33DDB3F5005F74D0B3F5805F21D000
:10237000702B40F08380D1E901E3C968DCF80820C4
:1023800043EA0E0322F47F4243EA01211143CCF8D1
:102390000810DCF8081041F0770109E00BB1102BB0
:1023A0006CD1DCF8081021F07001194341F00701ED
:1023B000CCF808100022012180F83D10002180F89F
:1023C0003C10BDE880401046704700BF502B21D024
:1023D000602B53D1D1F804E0C968DCF82030DCF878
:1023E000202022F01002CCF82020DCF8182022F463
:1023F000704242EA013123F0A00242EA0E12CCF808
:102400001810CCF82020DCF8081041F0670121F00A
:102410001001CDE7D1F804E0C968DCF82030DCF821
:10242000202022F00102CCF82020DCF8182022F035
:10243000F00242EA011123F00A0242EA0E02CCF84D
:102440001810CCF82020DCF8081041F0570121F0DA
:102450002001ADE7D1E901E3C968DCF8082043EACF
:102460000E0322F47F4243EA01211143CCF8081005
:10247000DCF8081041F480419AE700BF01229AE796
:10248000002804BF012070472DE9F04F81B090F87B
:102490003D2042B9002280F83C2004460D4600F061
:1024A0009DF829462046022280F83D20026844F229
:1024B0000705936842F6004CAB43936040F2FF730C
:1024C0001468C4F200039A42C4F2010C14DCB2F1A5
:1024D000804F19D040F20045C4F20005AA4213D043
:1024E0009A4217DCB2F1804F1CD040F20043C4F294
:1024F00000039A4216D01AE0624505D040F6000566
:10250000C4F20005AA42EBD1856824F070042C4384
:102510009A42E7DD624505D040F60003C4F20003AD
:102520009A4204D1036924F4407543EA050424F077
:1025300080038469D0F804E0C568234362451360D2
:10254000D562C2F828E002D14369CCF830304FF0B0
:10255000010EC2F814E01569ED0703D0156925F0E6
:102560000105156195689469D2F820C0D1E9003859
:10257000D1E9027B43EA050A8D694FF6FF7924EA27
:10258000090447EA05254FF6FC47BD43D1E9077624
:1025900044EA0B040B692C4344EA07242CF022077D
:1025A000496944EA031347EA080743EA063347EA5E
:1025B0000111C2F808A09361116280F846E080F82A
:1025C0003EE080F83FE080F842E080F843E080F8A9
:1025D0003DE0002001B0BDE8F08F000010B586B0EE
:1025E000006840F20041C4F2000188424FF000014F
:1025F000CDE90411CDE902111CD0B0F1804F44D1D6
:1026000041F21800C4F2020041681C2441F00101AB
:102610004160416801F0010101910199016841F0B7
:1026200004010160006800F004000190019803209B
:1026300018E000BF41F21800C4F2020041681D24F6
:1026400041F002014160416801F0020101910199EC
:10265000016841F004010160006800F0040001908D
:102660000198C02002900020CDE9030040F6000050
:10267000C4F2010002A9FEF77DFF204602210022DC
:10268000FFF722F92046FFF70DF906B010BD000054
:1026900080B590F83E2090F83F3090F842E090F8F6
:1026A00043C004290AD0B9B9012A4FF0010208BF7A
:1026B000BEF1010F34D0104680BD00BF012B4FF09A
:1026C000010208BFBCF1010FF5D1022180F83F10D3
:1026D00080F8431000681EE0012A4FF0010208BF95
:1026E000012BE8D1BEF1010FE5D1BCF1010FE2D120
:1026F000022280F83E2080F83F2080F8422080F8B7
:10270000432091B10068016A21F001010162016A70
:1027100041F00101016210216FF0100209E000BFD9
:10272000022180F83E1080F84210006801216FF00D
:102730000102036A1A400262026A114301620168DF
:10274000002241F001010160104680BD7047000089
:1027500070B504460068C5680669B10716D515F05E
:10276000020113D06FF0020101610121217780691C
:10277000800703D02046FFF7E9FF05E0204600F080
:102780008FF8204600F010FA00202077700719D546
:1027900015F0040016D020686FF0040101610221D9
:1027A0002177806910F4407F04D02046FFF7CEFFE8
:1027B00006E000BF204600F073F8204600F0F4F970
:1027C00000202077300717D515F0080014D02068B6
:1027D0006FF00801016104212177C069800703D0EF
:1027E0002046FFF7B3FF05E0204600F059F82046E9
:1027F00000F0DAF900202077F00619D515F0100066
:1028000016D020686FF01001016108212177C0699E
:1028100010F4407F04D02046FFF798FF06E000BF89
:10282000204600F03DF8204600F0BEF90020207759
:10283000F00718BF15F0010002D1300609D412E0EC
:1028400020686FF001010161204600F01DFA30069A
:1028500009D515F0800006D020686FF08001016175
:102860002046FFF70BFC700609D515F0400006D096
:1028700020686FF040010161204600F0A7FAB00621
:1028800058BF70BD15F0200008D021686FF02002FD
:1028900020460A61BDE87040FFF7F2BB70BD000042
:1028A0007047000090F83C30012B04BF02207047B5
:1028B0004FEAB202032A00F2F1802DE9F043DFE88B
:1028C00002F003A53B7500BF036842F600461D6A8F
:1028D0001A6AC4F2010622F001021A621A465C6802
:1028E00052F818CFB3428E68D1F800E025F0020507
:1028F00045EA06050CD1CE68D1E9057824F4407488
:1029000025F00C0526F004063C43354344EA080450
:102910002CF0730747EA0E075C609F614F680969F6
:102920005F631D629F6947F008079F619F6927F0F9
:1029300004079F61A6E000BF036842F600461D6AD7
:102940001A6AC4F2010622F480721A621A46D3F897
:1029500004C052F81CEFB3428E680C6825F4007571
:1029600045EA06250FD1CE68D1E90598360240F236
:10297000FF4725F44065BE4335432CF4405748EAF1
:10298000090647EA061C2EF073072743C3F804C064
:10299000DF614F680969DF631D62DF6947F008077F
:1029A000DF61DF6927F00407DF616BE0036842F64F
:1029B0000047D3F820C01A6AC4F2010722F48052FB
:1029C0001A621A465C6852F81C5FD1F800E08E6803
:1029D000BB4204D14F6924F4804444EA87142CF4A8
:1029E000005747EA063725F4E64646EA0E265C60BD
:1029F000DE614E6809691E641F62DF6947F4006783
:102A0000DF61DF6927F48067DF613AE0036842F63F
:102A100000461D6A1A6AC4F2010622F010021A6208
:102A20001A46D3F804C052F8184FB3428E68D1F852
:102A300000E025F0200545EA06150FD1CE68D1E962
:102A400005986FF0400725F0C00507EA06163543E4
:102A50002CF4406748EA090647EA860C24F4E64469
:102A600044EA0E27C3F804C09F614F6809699F6359
:102A70001D629F6947F400679F619F6927F4806723
:102A80009F6109021368194311600021BDE8F043FA
:102A9000002280F83C200846704700BF0121002238
:102AA00080F83C2008467047002804BF012070478A
:102AB00010B590F83D1031B9002180F83C10044663
:102AC00000F070F82046022180F83D10016840F2C5
:102AD000FF740B68C4F2000442F6004CA142C4F239
:102AE000010C15DCB1F1804F1AD040F20042C4F263
:102AF0000002914214D0A14218DCB1F1804F1DD0E8
:102B000040F20042C4F20002914217D01AE000BF26
:102B1000614505D040F60002C4F200029142EAD1BC
:102B2000826823F070031343A142E6DD614505D0BE
:102B300040F60002C4F20002914203D1026923F47C
:102B400040731343846923F08002D0F804E0C36823
:102B5000224361450A60CB62C1F828E002D1426994
:102B6000CCF8302001224A610B69DB0703D00B69E6
:102B700023F001030B6180F8462080F83E2080F8A6
:102B80003F2080F8402080F8412080F8422080F8E3
:102B9000432080F8442080F8452080F83D20002024
:102BA00010BD00007047000070470000C1B104294B
:102BB00008D0082914BF41224022825C012A05D096
:102BC00016E000BF3F22825C012A11D102220829AF
:102BD00010D0042914BF80F8412080F83F200BE07A
:102BE00090F83E20012A03D1022280F83E2003E023
:102BF0000120704780F84020006801F01F01012289
:102C0000036A8A4023EA02010162036A42F64441F0
:102C1000C4F201011A43A1F14403984202620FD0A9
:102C200040F2FF71C4F20001884213DCB0F1804F22
:102C30001CD040F20041C4F20001884216D01CE0D2
:102C40000A6842F400420A6040F2FF71C4F20001D7
:102C50008842EBDD42F60041C4F20101884205D012
:102C600040F60001C4F20001884206D1816801F0FB
:102C70000701062904BF00207047016841F00101E7
:102C8000016000207047000010B5006842F6004166
:102C9000C4F20101884241D040F20041C4F2000177
:102CA00088421FD0B0F1804F18BF10BD40F23C7E6B
:102CB000C2F2000EDEF8001040F26803CA6AC2F2E7
:102CC00000035C694FF6FE7C4FF0FF306245C8BFE1
:102CD0000120204458614FF6FF70C862CEF80C0006
:102CE00010BD00BF40F2847EC2F2000EDEF800107C
:102CF00040F26803CA6AC2F200039C6A4FF6FE7C87
:102D00004FF0FF306245C8BF0120204498624FF663
:102D1000FF70C862CEF80C0010BD00BF40F268041E
:102D2000C2F20004207801280AD0B8B940F60000A9
:102D3000C4F201002021FEF725FD88B901200EE034
:102D400040F60000C4F201002021FEF71BFD002127
:102D5000217028B90120A07002E000BF002020707F
:102D600040F2F460C2F2000000686FF001010161FE
:102D700010BD0000B0B5044690F83C0001284FF0AB
:102D8000020008BFB0BD012584F83C5084F83D0026
:102D9000204602F05BF900284FF0010006D0002128
:102DA00084F83D5084F83C10B0BD00BF2068C16875
:102DB00021F04001C160C16821F48041C160002060
:102DC000002184F83D5084F83C10B0BD70470000ED
:102DD0007047000070470000B0B582B001680A6813
:102DE000CC684B6902F02F05202D04F0200505D199
:102DF00025B102B0BDE8B04002F0B6B95FEA027C8E
:102E00001EBF03F0010E04F4907313EB0E0341D1C7
:102E1000036BD50618D5012B16D114F0100313D06F
:102E2000002201920A6801924A680192019A496956
:102E300049064BD4818DC28DC38D002B18BF9142A2
:102E400040F0F48102B0B0BD13062DD514F080031C
:102E50002AD090F84120212AF4D18268B2F5805F0F
:102E600003D10269002A00F06782026A531C0362E0
:102E700012784A60C28C013A1304C284E2D1C86855
:102E800020F08000C860C86840F04000C86002B010
:102E9000B0BD00BFD30718BF14F4807340F0D080DA
:102EA000530700F1D380D8E05206CBD514F040028E
:102EB000C8D0CA6822F04002CA60202180F84110C0
:102EC00002B0BDE8B04000F037BC00BFC16B0A687B
:102ED000526893B2002BB5D0858DAB42B2D2C28579
:102EE0008969202900F0A180016851E8031F026868
:102EF00021F4807142E80313DBB1016851E8031F3C
:102F0000026821F4807142E8031393B1016851E82B
:102F1000031F026821F4807142E803134BB101687A
:102F200051E8031F026821F4807142E80313002B6B
:102F3000DAD1016851E8051F026821F0010142E879
:102F40000513C3B3016851E8051F026821F00101B0
:102F500042E805137BB3016851E8051F026821F0C0
:102F6000010142E8051333B3016851E8051F026807
:102F700021F0010142E80513002BDAD11BE000BF6C
:102F8000016851E8051F026821F0400142E805137D
:102F9000DBB1016851E8051F026821F0400142E8F9
:102FA000051393B1016851E8051F026821F0400143
:102FB00042E805134BB1016851E8051F026821F092
:102FC000400142E80513002BDAD1202180F842109D
:102FD00000210163016851E8031F026821F010011C
:102FE00042E80313DBB1016851E8031F026821F0D6
:102FF000100142E8031393B1016851E8031F02680E
:1030000021F0100142E803134BB1016851E8031F9E
:10301000026821F0100142E80313002BDAD1C16BE2
:1030200004460846FEF7C2F9204602214163818D1D
:10303000C28D891A89B202B0BDE8B040FFF7C8BEA0
:10304000436C43F001034364530706D5BEF1000F00
:1030500003D0436C43F002034364930706D5BEF1EB
:10306000000F03D0436C43F004034364BCF1000F32
:1030700006D55EEA050303D0436C43F008034364BE
:10308000436C002B3FF4DEAE920605D525B1044615
:1030900002F06AF8216820464969426C01F040015B
:1030A00002F00802891800F0B98000BF016851E8F9
:1030B000031F026821F4907142E80313BBB3016857
:1030C00051E8031F026821F4907142E8031373B3BF
:1030D000016851E8031F026821F4907142E803136C
:1030E0002BB3016851E8031F026821F4907142E894
:1030F0000313002BDAD11AE0016851E8051F0268BA
:1031000021F0010142E80513DBB1016851E8051F18
:10311000026821F0010142E8051393B1016851E80A
:10312000051F026821F0010142E805134BB1016857
:1031300051E8051F026821F0010142E80513002B48
:10314000DAD1016B012924D1016851E8031F02681B
:1031500021F0100142E80313DBB1016851E8031FBD
:10316000026821F0100142E8031393B1016851E8AD
:10317000031F026821F0100142E803134BB10168FC
:1031800051E8031F026821F0100142E80313002BED
:10319000DAD1202180F842100021016301684969D9
:1031A000490640F1C380016851E8051F026821F01B
:1031B000400142E80513DBB1016851E8051F0268D0
:1031C00021F0400142E8051393B1016851E8051F61
:1031D000026821F0400142E805134BB1016851E853
:1031E000051F026821F0400142E80513002BDAD1E7
:1031F000C16B002900F09A8045F25D12C0F6000212
:10320000044608464A63FEF7F5F800283FF41AAE74
:10321000E06B416B02B0BDE8B04008470446FFF7E1
:10322000D9FD0020606402B0B0BD00BF891A00BFA4
:10323000026852E8032F036822F4907243E80325E2
:10324000BDB3026852E8032F036822F4907243E88A
:10325000032575B3026852E8032F036822F49072C5
:1032600043E803252DB3026852E8032F036822F4D4
:10327000907243E80325002DDAD11AE0026852E883
:10328000052F036822F0010243E80525DDB102683D
:1032900052E8052F036822F0010243E8052595B1A5
:1032A000026852E8052F036822F0010243E8052571
:1032B0004DB1026852E8052F036822F0010243E88D
:1032C0000525002DDAD1202280F842200022026359
:1032D000026852E8032F036822F0100243E8032536
:1032E000DDB1026852E8032F036822F0100243E8C0
:1032F000032595B1026852E8032F036822F01002FB
:1033000043E803254DB1026852E8032F036822F019
:10331000100243E80325002DDAD1022289B242636C
:1033200002B0BDE8B040FFF753BD00BF02B0BDE83A
:10333000B040FFF74FBD00BF026A32F8023B6FF3A7
:103340005F234B60026295E5002804BF01207047AF
:1033500010B5044690F8410028B9002084F84000D8
:10336000204600F063F8242084F841002068D4E966
:103370000212C36823F40053C360036923F440536B
:103380001A430261D4E904231143C268194341F28C
:103390000C639A431143C1604169A26921F44071F1
:1033A000114343F60002C4F201029042416103D08E
:1033B000FEF726FC02E000BFFEF736FCD4E900234E
:1033C000192148439900B0FBF1F048F21F5CC5F2A7
:1033D000EB1CA0FB0C314FF69C734909C0F6FF7340
:1033E00001FB0300322303EB0010A0FB0C03F020D1
:1033F00000EA531000EB0110C3F34311084490603E
:103400001069202120F490401061506920F02A00BA
:103410005061D06840F40050D0600020606484F8AF
:10342000411084F84210606310BD000070B586B092
:10343000006844F20041C4F200010026884205966B
:10344000CDE90366029637D043F60001C4F20101CC
:10345000884266D141F21800C4F20200016840F6C9
:10346000000441F4804101600168C4F2010401F4E8
:10347000804101910199016802AD41F004010160B0
:103480000068294600F00400019001984FF4007094
:10349000029002200390032005902046FEF76AF870
:1034A0004FF4806002900020CDE9030020462946B9
:1034B000FEF760F806B070BD41F21800C4F20200D9
:1034C000416840F6000441F4003141604168C4F2B3
:1034D000010401F4003101910199016802AD41F04C
:1034E000040101600068294600F004000190019881
:1034F0000420029002200390032005902046FEF74E
:1035000039F80820CDE90206204629460496FEF740
:1035100031F8262000210022FEF7D6F92620FEF7FA
:10352000C1F906B070BD000090F84230202B07D1E1
:1035300000294FF0010318BF002A05D11846704733
:1035400002231846704700BF0023036381622221D3
:103550008285C285436480F842100169006819B110
:10356000C16841F48071C160416941F0010141616C
:10357000C16841F02001C1601846704710B540F2A3
:103580009804C2F2000440F65C00A11CC2F20000E4
:103590000122FFF7C9FF6078A178421C20446270C5
:1035A000017510BD2DE9F04381B0044690F841004B
:1035B000202809D100294FF0010018BF002A07D1A7
:1035C00001B0BDE8F08300BF022001B0BDE8F08388
:1035D0000020606421201D460E4684F841001746F5
:1035E000FEF7DCF8A784E784A1688146B1F5805F27
:1035F00002D1206900285DD037460020E28C216886
:10360000002A5DD06A1C24D0002D4AD0804600BF1D
:103610000868000608D4FEF7C1F8A0EB0900A8422C
:103620007AD82168C868F3E717B117F8010B04E0EE
:1036300038F8020B00276FF35F204860E08C0138F8
:10364000E084E08C0028E3D13AE000BF0A6812066B
:1036500009D40A68120606D40A6812065CBF0A6812
:103660005FEA0262F2D51FB117F8012B05E000BF37
:1036700030F8022B00276FF35F224A60E28C013A98
:10368000E284E28C002AE4D11AE000BF30F8022B79
:1036900000276FF35F224A60E28C013AE284E28CF9
:1036A00072B10A68120635D5002FEFD017F8012B3A
:1036B000F1E700BF00273046E28C2168002AA1D143
:1036C000086840061ED42DB3681C14D10868400653
:1036D0002AD40868400627D40868400624D408681D
:1036E00040064FF00000F1D50DE000BF2068C16832
:1036F0000068400618D4FEF751F8A0EB0900A84274
:10370000F4D909E00020202184F8411001B0BDE87F
:10371000F08300BFFEF742F80320202184F8411017
:1037200001B0BDE8F08300BF0020202184F84110E3
:1037300001B0BDE8F083000070470000FEE7000024
:103740002DE9F04381B040F60447C4F201073A681E
:1037500048F2A81622F470423A603A68C4F2212670
:1037600042F440524FF001083A60C6F8048056F81F
:103770007C2C0D46044682B10120C6F8008001F081
:10378000F9FD4FF00009C6F8049056F87C0C20B9FA
:10379000012001F0EFFDC6F80090204600F006F988
:1037A00000F08CF9284600F001F900F087F938683C
:1037B00020F470403860386840F440503860C6F8F3
:1037C000048056F87C0C60B10120306001F0D2FD1D
:1037D0000025756056F87C0C18B9012001F0CAFD6F
:1037E0003560601CC0B200F0E1F800F067F900201D
:1037F000002500F019F83968044621F47041396059
:10380000396841F440503860012035607560012509
:1038100001F0B0FD01203560756001F0ABFD204680
:1038200001B0BDE8F08300002DE9F04F83B040F611
:103830000442C4F20102116848F2A81521F4704153
:1038400011601168019041F400401060C4F221251C
:103850000020286002204FF0000B01F08BFD0120BA
:10386000286055F87C0C0127002818BF0120029021
:10387000022001F07FFD0220C5F800B001F07AFDC2
:103880002F6055F87C6C022001F074FD0220C5F811
:1038900000B001F06FFD2F6055F87C4C0220002C29
:1038A00018BF012401F066FD0220C5F800B001F048
:1038B00061FD2F6055F87C8C022001F05BFD022039
:1038C000C5F800B001F056FD2F6055F87C9C022031
:1038D000B9F1000F18BF4FF0010901F04BFD0220B4
:1038E000C5F800B001F046FD2F6055F87CAC022011
:1038F00001F040FD0220C5F800B001F03BFD2F6053
:1039000055F87CBC02200127BBF1000F18BF4FF017
:10391000010B01F02FFD00202860022001F02AFD9C
:103920002F6055F87C7C022001F024FD002040F639
:1039300004422860C4F201021068019920F470402A
:1039400010601068B1FA81F140F4405049091060EC
:103950000120696001F00EFD0120286001F00AFDE0
:10396000002E18BF01260298B8F1000F46EA400069
:103970004FEA800040EA440018BF4FF0010840447D
:10398000800040EA4900BAF1000F18BF4FF0010A69
:103990005044800040EA4B00002F18BF01273844F4
:1039A0000021C0B2296003B0BDE8F08FF0B581B04E
:1039B00040F60441C4F201010A68044622F4704250
:1039C0000A600A6848F2A81542F440500860C4F240
:1039D00021250026E0092E6068600120012701F002
:1039E000C9FC01202F6001F0C5FC01202E6001F010
:1039F000C1FCC4F380106860012001F0BBFC012011
:103A00002F6001F0B7FC01202E6001F0B3FCC4F37D
:103A100040106860012001F0ADFC01202F6001F032
:103A2000A9FC01202E6001F0A5FCC4F30010686021
:103A3000012001F09FFC01202F6001F09BFC012080
:103A40002E6001F097FCC4F3C0006860012001F013
:103A500091FC01202F6001F08DFC01202E6001F00F
:103A600089FCC4F380006860012001F083FC012020
:103A70002F6001F07FFC01202E6001F07BFCC4F37D
:103A800040006860012001F075FC01202F6001F00A
:103A900071FC01202E6001F06DFC04F001006860F3
:103AA000012001F067FC01202F6001F063FC012080
:103AB0002E6001B0BDE8F04001F05CBC70B540F68E
:103AC0000445C4F20105286848F2A81420F47040A7
:103AD00028602868C4F2212440F4004028600126B0
:103AE0000120666001F046FC0120266001F042FCE6
:103AF00054F87C0C50B10026322E0BD20120013636
:103B000001F038FC54F87C0C0028F5D1002020602E
:103B1000012070BD286820F470402860286840F4B7
:103B2000405028600020206060600120012501F0E5
:103B300021FC01202560656001F01CFC002070BDA7
:103B4000F0B581B01C4615460E460746FFF7F8FD56
:103B50000121A94041EA0002002C08BF20EA01022D
:103B60008DF803200DF1030338463146012200F0A1
:103B70002FF8012001B0F0BD2DE9F04182B0DDF851
:103B800020801D4616460C460746FFF7D9FDAA1BA6
:103B90000732FF234FF4FF7123FA02F2C5F1080345
:103BA000B14008FA03F3C6F10706DBB21143F34054
:103BB000084018438DF807000DF1070338462146E9
:103BC000012200F005F8012002B0BDE8F0810000FC
:103BD0002DE9F04740F60446C4F2010698463368E2
:103BE000894623F470413160316848F2A81541F4E8
:103BF0004051C4F2212531600121696055F87C3CB7
:103C0000144607467BB10120296001F0B3FB4FF059
:103C1000000AC5F804A055F87C0C20B9012001F079
:103C2000A9FBC5F800A03846FFF7C0FEFFF746FF26
:103C30004846FFF7BBFEFFF741FF4CB1A8F1010773
:103C400017F8010FFFF7B2FEFFF738FF013CF7D17D
:103C50003068012420F470403060306840F44050F7
:103C60003060002028606860012001F083FB0120A3
:103C70002C606C6001F07EFB0120BDE8F087000045
:103C80002DE9F04F89B040F25C1BC2F2000B0A46EE
:103C90000791DBE90014049010460691FCF7D9FA6D
:103CA00040F20C05C2F200052F693946FCF7D7FA3D
:103CB0002146FCF77CFA6968D5F818A008900846F8
:103CC0005146FCF7C6FAD5F81C804146FCF7C1FA0C
:103CD000D5F820902A46AD6889F0004654693946E7
:103CE000CBE91006CBF84860CBF84C50FCF7B7FA9C
:103CF0002146FCF75CFA8346019030463946FCF7D2
:103D0000AEFA51460446FCF752FA0390204641466B
:103D1000FCF74DFA0446029028463946FCF79FFA14
:103D20004946FCF744FA059004980899FCF791FA83
:103D300040F20C08C2F200080146049098F8000016
:103D400040F25C17C2F20007B960FCF7C1FC0546FF
:103D500058462946FCF783FA8146F86020462946F2
:103D6000FCF77DFA0446D8F80C60386128464946CD
:103D7000C346FCF774FA3146FCF719FA0646786137
:103D800048463146FCF79DFA8246B86120463146E6
:103D9000FCF797FA039C804620462946C7E9078925
:103DA000FCF75DFA0546786250464946FCF757FA3B
:103DB00001460198FCF74DFACBF81400504629460D
:103DC000FCF74DFA01462046FCF743FACBF8180001
:103DD00040464946FCF743FA01460298FCF739FA97
:103DE000CBF81C0040462946FCF739FA01460598F5
:103DF000FCF72FFA049CCBF8200050462146FCF734
:103E00002EFA0899FCF7D3F9786040462146FCF772
:103E100026FA0699FCF7CBF9014638600798FCF7BB
:103E200018FAB86209B0BDE8F08F000010B540F292
:103E30003C70C2F200003C21FEF72AFC40F2847084
:103E4000C2F200003C21FEF723FC41F20004C4F260
:103E50000104A4F5806008210022FDF799FCA4F577
:103E600000604FF400410022FDF792FC20464FF421
:103E700000510022FDF78CFC20464FF480410022C7
:103E8000BDE81040FDF784BC10B582B0D0206B2196
:103E900006220123FFF754FE642001F03DFA0220C0
:103EA0000090D0206B21022203230324FFF764FE3D
:103EB000D0201B21042202230094FFF75DFE002482
:103EC000D0201C21042202230094FFF755FED020AD
:103ED0006B2106220023FFF733FED0206A21052242
:103EE0000023FFF72DFED02037210122002302B04E
:103EF000BDE81040FFF724BEB0B584B040F2C46006
:103F000042F20041C2F20000C4F2010100244FF469
:103F10006022012504730475C261C0E90014846045
:103F20000561FDF763F9002818BFFCF751FF092070
:103F3000CDE9010540F2C460C2F2000001A903947A
:103F4000FDF7B4F8002818BFFCF742FF04B0B0BD7D
:103F50002DE9F04F85B0002441F21800CDE903446B
:103F6000CDE90144C4F20200016840F6004841F086
:103F7000100101600168C4F2010801F01001009114
:103F80000099016808F5806741F02001016001682F
:103F9000002201F020010091009901684FF4C04512
:103FA00041F004010160016801F0040100910099F1
:103FB000016841F00801016000684FF4C04100F061
:103FC0000800009000983846FDF7E2FBA8F58066EF
:103FD000304649F21001002249F2100BFDF7D8FBE0
:103FE000404640F638410022FDF7D2FB019501AD75
:103FF0004FF001094FF0020A38462946CDE90294F4
:10400000CDF810A0FDF7B6FA4FF40040CDE9010459
:10401000384629460394FDF7ADFA30462946CDE9E6
:1040200001B9CDE9034AFDF7A5FA4FF49070CDE947
:104030000104304629460394FDF79CFA0020C1F2A2
:104040002100CDE9020940462946CDF80490FDF74C
:1040500091FA4FF440600190112640462946CDE97F
:104060000264CDF81090FDF785FA4FF47040CDE969
:104070000104404629460394FDF77CFA0820CDE967
:10408000010940462946CDE9034AFDF773FA30207D
:1040900001A981E8410640462946FDF76BFA062052
:1040A00000210022FDF710FC0620FDF7FBFB05B008
:1040B000BDE8F08F10B58CB040F2F46042F60042DB
:1040C0000021C2F20000C4F20102472342F20F7441
:1040D0004FF0800C0B91CDE909110791CDE9051145
:1040E000CDE90311CDE90011C0E90023C0E90214B4
:1040F000C0E90411C0F818C0FEF704F8002818BF82
:10410000FCF766FE4FF48050089040F2F460C2F273
:10411000000008A9FEF7E4F8002818BFFCF758FED5
:1041200040F2F4600024C2F2000003A9CDE9034488
:10413000FEF720FE002818BFFCF74AFE40F2F460AC
:10414000C2F200006946CDE90044FDF79BFF00285C
:1041500018BFFCF73DFE0CB010BD000080B58CB060
:1041600040F23C700021C2F200004FF08042C0E9F2
:1041700000218022826103224FF6FF73CDE90321E3
:104180000122CDE90011C0E902130161CDE9052149
:10419000CDE90711CDE909210B9103A9FEF770F9CB
:1041A000002818BFFCF714FE40F23C70C2F2000079
:1041B0006946FDF767FF002818BFFCF709FE0CB041
:1041C00080BD000080B58CB040F2847040F20042A7
:1041D0000021C2F20000C4F20002C0E900218022E6
:1041E000826103224FF6FF73CDE903210122CDE95D
:1041F0000011C0E902130161CDE90521CDE90711E4
:10420000CDE909210B9103A9FEF73AF9002818BF5F
:10421000FCF7DEFD40F28470C2F200006946FDF753
:1042200031FF002818BFFCF7D3FD0CB080BD0000A3
:10423000B0B594B040F6000540F2CC70C4F2000571
:104240000021C2F2000041F61F420E91CDE90C118F
:104250000991CDE90711CDE90511CDE90311CDE9AA
:104260000111C0E90051C0E90212016180218161A0
:10427000FDF748FF002818BFFCF7AAFD4FF4805057
:104280000B9040F2CC70C2F200000BA9FEF728F8A8
:10429000002818BFFCF79CFD40F2CC70C2F2000071
:1042A000FEF702FC002818BFFCF792FD40F2CC702C
:1042B0000024C2F2000008A9CDE90844FDF7E2FE9F
:1042C000002818BFFCF784FD6020CDE9010440F20E
:1042D000CC70C2F2000001A9082203940594FEF7F5
:1042E000E1FA002818BFFCF773FD40F2CC74C2F26B
:1042F000000401A920460C22FEF7D4FA002818BFBA
:10430000FCF766FD21680020A942CDE9120011905A
:10431000109001D014B0B0BD41F21800C4F20200F8
:10432000016841F008010160006810A900F0080070
:104330000F900F984FF4407010900220119013903E
:1043400005F58230FDF716F914B0B0BD80B540F622
:10435000140043F60001C2F20000C4F20101002380
:104360004FF00C0C4FF4E13280E80E00C0E903334B
:10437000C0E905C3C361FEF7E7FF002808BF80BDA1
:10438000BDE88040FCF724BD80B540F65C0044F2F7
:104390000041C2F20000C4F2000100234FF0040CFF
:1043A0004FF4E13280E80E00C0E90333C0E905C3F1
:1043B000C361FEF7C9FF002808BF80BDBDE880408B
:1043C000FCF706BDFEE700002DE9F04381B00D4685
:1043D00041F6573100F0B8FE0446284641F6573101
:1043E00000F0B2FE01284FF000024FF00007C0F1CC
:1043F000000641F20009B8BF0122B0F1FF3FC8BF7B
:104400000127C8BF0026C4F201090128A8BF06463B
:10441000A9F5806008210025FDF7BAF9A9F500602B
:104420004FF400413A46FDF7B3F940F2CC78C2F2BE
:104430000008D8F80000012CC6634FF00007C4F153
:104440000006B8BF0127B4F1FF3FC8BF0125C8BFB0
:10445000002648464FF400512A46012CA8BF2646A4
:10446000FDF796F948464FF480413A46FDF790F93A
:10447000D8F80000066401B0BDE8F083FEE7000054
:10448000B0B54FF60044AE200021CFF6FF740025F2
:1044900000F05AFB0020002100F056FB1020002104
:1044A00000F052FB4020002100F04EFB8120002153
:1044B00000F04AFBCF20002100F046FBA1200021A4
:1044C00000F042FBC820002100F03EFBA6200021A6
:1044D00000F03AFBA820002100F036FB3F2000212D
:1044E00000F032FBD320002100F02EFB0020002141
:1044F00000F02AFBD520002100F026FB80200021BF
:1045000000F022FBD920002100F01EFBF120002149
:1045100000F01AFBDA20002100F016FB1220002127
:1045200000F012FBDB20002100F00EFB40200021F8
:1045300000F00AFB2020002100F006FB02200021F1
:1045400000F002FB8D20002100F0FEFA1420002173
:1045500000F0FAFAA420002100F0F6FAA6200021CB
:1045600000F0F2FA40F2BC10C2F20000214600BF97
:10457000421811F5807182F8005482F8085482F8CC
:10458000105482F8185482F8205482F8285482F883
:10459000305482F8385482F8405482F8485482F8F3
:1045A000505482F8585482F8605482F8685482F863
:1045B000705482F8785482F8805482F8885482F8D3
:1045C000905482F8985482F8A05482F8A85482F843
:1045D000B05482F8B85482F8C05482F8C85482F8B3
:1045E000D05482F8D85482F8E05482F8E85482F823
:1045F000F05482F8F854BBD100212246831812F5FA
:10460000807283F8011483F8091483F8111483F875
:10461000191483F8211483F8291483F8311483F8CA
:10462000391483F8411483F8491483F8511483F83A
:10463000591483F8611483F8691483F8711483F8AA
:10464000791483F8811483F8891483F8911483F81A
:10465000991483F8A11483F8A91483F8B11483F88A
:10466000B91483F8C11483F8C91483F8D11483F8FA
:10467000D91483F8E11483F8E91483F8F11483F86A
:10468000F914BBD100212246831812F5807283F8F9
:10469000021483F80A1483F8121483F81A1483F8A6
:1046A000221483F82A1483F8321483F83A1483F816
:1046B000421483F84A1483F8521483F85A1483F886
:1046C000621483F86A1483F8721483F87A1483F8F6
:1046D000821483F88A1483F8921483F89A1483F866
:1046E000A21483F8AA1483F8B21483F8BA1483F8D6
:1046F000C21483F8CA1483F8D21483F8DA1483F846
:10470000E21483F8EA1483F8F21483F8FA14BBD1A4
:1047100000212246831812F5807283F8031483F86F
:104720000B1483F8131483F81B1483F8231483F8F1
:104730002B1483F8331483F83B1483F8431483F861
:104740004B1483F8531483F85B1483F8631483F8D1
:104750006B1483F8731483F87B1483F8831483F841
:104760008B1483F8931483F89B1483F8A31483F8B1
:10477000AB1483F8B31483F8BB1483F8C31483F821
:10478000CB1483F8D31483F8DB1483F8E31483F891
:10479000EB1483F8F31483F8FB14BBD100212246F9
:1047A000831812F5807283F8041483F80C1483F8CC
:1047B000141483F81C1483F8241483F82C1483F83D
:1047C000341483F83C1483F8441483F84C1483F8AD
:1047D000541483F85C1483F8641483F86C1483F81D
:1047E000741483F87C1483F8841483F88C1483F88D
:1047F000941483F89C1483F8A41483F8AC1483F8FD
:10480000B41483F8BC1483F8C41483F8CC1483F86C
:10481000D41483F8DC1483F8E41483F8EC1483F8DC
:10482000F41483F8FC14BBD100212246831812F53E
:10483000807283F8051483F80D1483F8151483F837
:104840001D1483F8251483F82D1483F8351483F888
:104850003D1483F8451483F84D1483F8551483F8F8
:104860005D1483F8651483F86D1483F8751483F868
:104870007D1483F8851483F88D1483F8951483F8D8
:104880009D1483F8A51483F8AD1483F8B51483F848
:10489000BD1483F8C51483F8CD1483F8D51483F8B8
:1048A000DD1483F8E51483F8ED1483F8F51483F828
:1048B000FD14BBD100212246831812F5807283F8C3
:1048C000061483F80E1483F8161483F81E1483F864
:1048D000261483F82E1483F8361483F83E1483F8D4
:1048E000461483F84E1483F8561483F85E1483F844
:1048F000661483F86E1483F8761483F87E1483F8B4
:10490000861483F88E1483F8961483F89E1483F823
:10491000A61483F8AE1483F8B61483F8BE1483F893
:10492000C61483F8CE1483F8D61483F8DE1483F803
:10493000E61483F8EE1483F8F61483F8FE14BBD162
:10494000002100BF021914F5807482F8071482F860
:104950000F1482F8171482F81F1482F8271482F8B3
:104960002F1482F8371482F83F1482F8471482F823
:104970004F1482F8571482F85F1482F8671482F893
:104980006F1482F8771482F87F1482F8871482F803
:104990008F1482F8971482F89F1482F8A71482F873
:1049A000AF1482F8B71482F8BF1482F8C71482F8E3
:1049B000CF1482F8D71482F8DF1482F8E71482F853
:1049C000EF1482F8F71482F8FF14BBD100F006F858
:1049D000AF200021BDE8B04000F0B6B8F0B581B01E
:1049E00040F2BC1640F600440025C2F20006C4F2B4
:1049F000010400BF45F0B000C0B2002100F0A4F8EF
:104A00000020002100F0A0F81020002100F09CF808
:104A1000204610210122FCF7BBFE20462021012266
:104A2000FCF7B6FE0A2000F0A5FC2046102100226B
:104A3000FCF7AEFE0A2000F09DFC2046202100225B
:104A4000FCF7A6FE0A2000F095FC782000F030FA72
:104A5000204610210122FCF79BFE0A2000F08AFC70
:104A6000204620210122FCF793FE0A2000F082FC60
:104A7000204620210022FCF78BFE0A2000F07AFC61
:104A8000402000F015FA204610210122FCF780FE9C
:104A90000A2000F06FFC204620210122FCF778FE5E
:104AA0000A2000F067FC204620210022FCF770FE5F
:104AB0000A2000F05FFC6FF0070700BFF019007AD2
:104AC00000F0F6F9204610210122FCF761FE0A20D1
:104AD00000F050FC204620210122FCF759FE0A205C
:104AE00000F048FC204620210022FCF751FE0A205D
:104AF00000F040FC0837B7F57E7FDFD1204610215B
:104B00000122FCF745FE204620210122FCF740FE51
:104B10000A2000F02FFC204610210022FCF738FE6E
:104B20000A2000F027FC204620210022FCF730FE5E
:104B30000A2000F01FFC0135082D06F101067FF464
:104B400059AF01B0F0BD000070B540F60044C4F2AA
:104B500001040E460546002920464FF010014FF093
:104B6000010218BF0126FCF713FE20462021012276
:104B7000FCF70EFE0A2000F0FDFB2046102100226B
:104B8000FCF706FE0A2000F0F5FB2046202100225B
:104B9000FCF7FEFD0A2000F0EDFB782000F088F91C
:104BA000204610210122FCF7F3FD0A2000F0E2FB71
:104BB000204620210122FCF7EBFD0A2000F0DAFB61
:104BC000204620210022FCF7E3FD0A2000F0D2FB62
:104BD000B00100F06DF9204610210122FCF7D8FD4C
:104BE0000A2000F0C7FB204620210122FCF7D0FD5F
:104BF0000A2000F0BFFB204620210022FCF7C8FD60
:104C00000A2000F0B7FB284600F052F92046102198
:104C10000122FCF7BDFD0A2000F0ACFB204620215C
:104C20000122FCF7B5FD0A2000F0A4FB204620215C
:104C30000022FCF7ADFD0A2000F09CFB204610216D
:104C40000122FCF7A5FD204620210122FCF7A0FD52
:104C50000A2000F08FFB204610210022FCF798FD6F
:104C60000A2000F087FB204620210022FCF790FD5F
:104C70000A20BDE8704000F07DBB000070470000D6
:104C80002DE9F04F89B040F2DC0BC2F2000B0DF1C0
:104C90001F070BF118000BF11E0103AA08ABCDE9A9
:104CA00000B700F0EFFCBBF80000C00540F18980C0
:104CB00003AFB1CFFBF703FD4FF04251FBF7CFFA43
:104CC000064640F23800C2F2000006602046FBF7BC
:104CD000F6FC4FF04251FBF7C2FA8246CBF80400D3
:104CE0002846FBF7ECFC4FF04251FBF7B8FA0546BB
:104CF000CBF808003846FBF7E2FC4FF04251FBF7D7
:104D0000AEFA0746CBF80C0050464FF04041FBF797
:104D1000A6FA814630463146FBF749FA294606464F
:104D2000FBF79DFA044648463946FBF798FA2146B8
:104D3000FBF73DFAFBF71AFD03F028FC4AF2666820
:104D4000C4F24C084FF066324346FBF79FFBFBF77B
:104D500020FDCBF8100028462946FBF728FA044628
:104D600030465146FBF77BFA064620463946FBF7AC
:104D700076FA3146FBF71BFAFBF7F8FC06460F46BE
:104D800020462946FBF76BFA044648465146FBF796
:104D900066FA2146FBF75DFA4FF07E51FBF707FA02
:104DA000FBF7E4FC02460B463046394603F036FE7C
:104DB0004FF066324346FBF769FBFBF7EAFCCBF8A2
:104DC000140009B0BDE8F08FB0B5D0204121FEF746
:104DD000B7FC0446D0204221FEF7B2FC40EA04248E
:104DE0002046FBF775FC05462046CFF6FF70FBF723
:104DF00066FC0021C4F2AA31B4F5004F98BF2846E2
:104E0000FBF75FFAFBF7B2FC47F2A40244F2D73398
:104E1000C0F63D22C4F24203FBF791FA0023C4F22C
:104E200024030022FBF732FBFBF7B3FCFBF766FC25
:104E3000B0BD000010B540F28470C2F20000D0F89E
:104E400000E040F26803C2F20003DEF82400596972
:104E500044F6206402B2D3F80CC06143891A61445D
:104E60005042D9600021C3E90100CEF8241010BDE2
:104E700080B540F23C70C2F20000016840F2680266
:104E8000486AC2F20002D2E9073C00B2D2F828E038
:104E9000C31A536244F620630EFB0303906163441C
:104EA000D061136200224A6280BD0000704700009A
:104EB000B0B540F60044C4F201040546C2092046DC
:104EC0001021FCF765FC0A2000F054FA204620214E
:104ED0000122FCF75DFC0A2000F04CFA204620215C
:104EE0000022FCF755FCC5F3801220461021FCF788
:104EF0004FFC0A2000F03EFA204620210122FCF758
:104F000047FC0A2000F036FA204620210022FCF758
:104F10003FFCC5F3401220461021FCF739FC0A2063
:104F200000F028FA204620210122FCF731FC0A205B
:104F300000F020FA204620210022FCF729FCC5F3CE
:104F4000001220461021FCF723FC0A2000F012FA80
:104F5000204620210122FCF71BFC0A2000F00AFA5F
:104F6000204620210022FCF713FCC5F3C002204696
:104F70001021FCF70DFC0A2000F0FCF9204620214E
:104F80000122FCF705FC0A2000F0F4F9204620215C
:104F90000022FCF7FDFBC5F3800220461021FCF740
:104FA000F7FB0A2000F0E6F9204620210122FCF759
:104FB000EFFB0A2000F0DEF9204620210022FCF75A
:104FC000E7FBC5F3400220461021FCF7E1FB0A2075
:104FD00000F0D0F9204620210122FCF7D9FB0A205D
:104FE00000F0C8F9204620210022FCF7D1FB05F093
:104FF000010220461021FCF7CBFB0A2000F0BAF991
:10500000204620210122FCF7C3FB0A2000F0B2F960
:10501000204620210022BDE8B040FCF7B9BB0000CB
:10502000FCF7C2BB7047000040F2F460C2F200001F
:10503000FDF78EBB40F23C70C2F20000FDF788BB6A
:1050400040F28470C2F20000FDF782BB80B5D0F858
:1050500000E0DEF80800D1E900C320F0770023F07B
:10506000070210434FEA331340EA0C00072BCEF837
:1050700008000CD80020DFE803F005050505071D32
:10508000370D00BF80BD00BFBCF1050F46D1012028
:1050900080BD00BFD1E902020969DEF80830104383
:1050A00023F47F4340EA01201843CEF80800002093
:1050B00080BD00BF88680969DEF82020DEF8203056
:1050C00022F00A0223F00103CEF82030DEF8183077
:1050D000104323F0F00343EA0111CEF81810CEF884
:1050E0002000002080BD00BF88680969DEF820200C
:1050F000DEF8203022F0A00223F01003CEF820309A
:10510000DEF8183042EA001023F4704343EA01311C
:10511000CEF81810CEF82000002080BDDEF8200068
:10512000DEF8202022F00102CEF82020DEF8182040
:10513000096922F0F00242EA0111CEF81810CEF807
:105140002000002080BD00004A429042C8BF0246B5
:105150008842C8BF0A46104670470000406A0021D6
:10516000C185C184FDF736BE81B090F84210222976
:1051700021D183680246B3F5805F09D152F8281F18
:1051800052F8183C002B63D003685B680AE000BF4C
:1051900052F8281F13B90369002BF5D003685B6828
:1051A00003F07F030B70116801311160C18D01396B
:1051B0000A04C18502D001B0704700BF0168CA6807
:1051C00022F02002CA60CA6822F48072CA604A696A
:1051D00022F001024A61202180F84210002141633F
:1051E000026B012A3CD10163016851E8031F026888
:1051F00021F0100142E80313DBB1016851E8031FFD
:10520000026821F0100142E8031393B1016851E8EC
:10521000031F026821F0100142E803134BB101683B
:1052200051E8031F026821F0100142E80313002B2C
:10523000DAD101680A68D20606D5002200920A680F
:105240000092496800910099818D01B0FDF7C0BDC1
:10525000026852686FF35F2221F8022B8162A5E792
:1052600001B0FEF78BB9000040F65C00C2F200000E
:10527000FDF7B2BDFEE700004A429042C8BF0246B9
:105280008842C8BF0A461046704700004EF60C50D0
:10529000BFF34F8FCEF200000168042201F4E061F9
:1052A000C0F2FA5211430160BFF34F8F00BF00BF3D
:1052B00000BF00BFFAE70000F0B581B00C46002146
:1052C000C4F2C001FAF773FF40F29061C2F200012C
:1052D0000546C86008688E68FBF7F1F90746204666
:1052E0003146FAF7BCFF044638462946FAF7B7FFBD
:1052F0002146FAF75CFFFBF701FA01B0F0BD0000B0
:1053000040F29401C008C2F200014FF47A720870B2
:10531000504348807047000081B0ADF8020040F271
:105320009400C2F20000BDF8021042884EF2100054
:10533000CEF20000514341600021816001210160F3
:10534000016801F0011101290ED1016801F001117C
:10535000012909D1016801F00111012904D1016875
:1053600001F001110129EBD000210160816001B041
:105370007047000081B0009040F29400C2F200003B
:10538000009902784EF21000CEF2000051434160C5
:105390000021816001210160016801F001110129F2
:1053A0000ED1016801F00111012909D1016801F054
:1053B0000111012904D1016801F001110129EBD08B
:1053C00000210160816001B070470000F0B587B036
:1053D00004464CF60220C0F6E3100DF10605CDF8A8
:1053E0000600682004212A4602F018FB14F0400150
:1053F0004FF0A3006FF03F018DF8060008BF6FF07B
:105400005C016FF037026FF03D0308BF6FF05C0284
:1054100008BF6FF05C038DF8071014F4C0716FF0D3
:105420003B018DF808208DF8093008BF6FF05C0152
:105430006FF033026FF0390308BF6FF05C0208BFF2
:105440006FF05C038DF80A104AF2A3318DF80B203F
:10545000ADF80D108DF80F0040F6A7200A212A465E
:105460008DF80C3002F0DAFA2020A60708BF6FF0A2
:1054700027008DF8060040F6B62001212A4602F0EA
:10548000CDFAA0060CD4C720069048F6B000CCF2A6
:10549000C35005904AF6B820CAF6AA200BE000BF18
:1054A0005D20069049F6B400C3F20D5005904AF60F
:1054B000B820C8F6B350049004AA4FF497600921AD
:1054C00002F0ACFA14F4C07F25D06FF04D016FF0FC
:1054D000740214F4807008BF6FF04F0108BF6FF0C2
:1054E0007F026FF049036FF0640508BF6FF04B0354
:1054F000002808BF6FF06F058DF806108DF80720A3
:105500000DF1060240F6A22004218DF808308DF836
:10551000095002F083FAE00708D1D8208DF8060080
:105520000DF106024FF40B60012150E0F8208DF8D8
:1055300006000DF106024FF40B60012102F06EFA35
:105540000720FA2100F0F6FA3F208DF8100004AA97
:105550004FF4A470012102F061FA00208DF81000D0
:1055600004AA40F24F10012102F058FA4FF4A05063
:10557000ADF8100004AA4FF4EF70022102F04EFAC9
:105580004FF4C840ADF8100004AA4FF4ED700221AA
:1055900002F044FA48F60060C9F2F900049004AA47
:1055A0004FF4AE70042102F039FA4FF40060ADF808
:1055B000100004AA4FF4AD70022102F02FFA4FF44C
:1055C0000070ADF8100004AA4FF4AC70022102F094
:1055D00025FA6FF02600002E58BF6FF027008DF8D7
:1055E00006000DF1060240F23D70012102F016FAAC
:1055F000600752BF4FF08B304CF2C020CCF2C46039
:10560000049004AA40F69820042102F007FA01F061
:1056100085FAE00652BF4FF0A33042F62000C3F6F1
:105620003000049004AA40F69E20042102F0F6F90E
:1056300001F074FA40F2CC0744F00800C2F200070F
:105640006506B88001F06AFA062000EAE57114F4F4
:10565000C07F18BF063114F0140F18BF1031002E90
:1056600018BF04310020397007B0F0BD48F6605112
:10567000C0F6000140F6F6304FF48062C82301F016
:105680003DB800002DE9F04F89B040F2CC09144636
:10569000DDE912B2C2F200090F468046002199F8F6
:1056A00000000DF1040AABF8001051461E4601F04F
:1056B000D5F928B14FF0FF3009B0BDE8F08F00BF39
:1056C000B9F804C01CF0140F50D09DF80520B64660
:1056D0009DF80410BDF8066012049DF8095042EAD6
:1056E000016132BA9DF8083041EA1242BDF80A6001
:1056F00022602A0442EA036233BA42EA1343636037
:105700009DF80D309DF80C60BDF80E501B0443EA67
:1057100006632EBA43EA16461214A6609DF811607D
:10572000091452439DF8105001FB012136041A144C
:1057300046EA056602FB02113214BDF8120002FBB4
:10574000021100BA01F1714146EA1040B1F1007F47
:10575000E06069D8BBF80000102140F48070764604
:10576000ABF800005FEA4C6004D420E000215FEA5F
:105770004C601CD50AEB01001AF80120437834462E
:105780008678C57890F804E0407943EA02223A80AE
:1057900045EA062240EA0E207A80B880BBF8000075
:1057A000264641F0060140F00800ABF800001CF46A
:1057B000C07F18D03AF801000AEB010200BA538802
:1057C000000CA8F8000018BA9288000CA8F8020093
:1057D00010BA000CA8F80400BBF80000063140F035
:1057E0007000ABF800005FEA8C7016D00AEB010580
:1057F0006878EC78C10709D0D9F8082032B104F0F4
:105800000700411CC4F3C20090476878000704D524
:10581000D9F80C1009B1A0098847304602F03EF9CA
:10582000002009B0BDE8F08F01F078F90020ABF856
:1058300000004FF0FF3009B0BDE8F08F10B584B024
:1058400004460DF1020000F02FFE40F2BC60C2F2EF
:1058500000000088BDF802C000F00302430754F8BE
:1058600022204FF00C0348BF524203EA5003810646
:10587000E358C0F3811148BF5B4254F82110C005C2
:1058800048BF49424FEACC3080FB02C480FB03E2B0
:1058900080FB01014FEA9C73800F43EA840C4FEABE
:1058A0009E7340EA810EA00D8DF80400A00B8DF8C8
:1058B0000500A0098DF80600900D8DF80800900BEA
:1058C0008DF8090090098DF80A00880D8DF80C00FC
:1058D000880B8DF80D00880943EA82038DF80E00CD
:1058E00001AA4FF425700C218DF807C08DF80B30FC
:1058F0008DF80FE002F092F804B010BD10B586B03C
:105900004AF6BB71CDF6DF7105914FF2AA11CDF6C3
:10591000DF7104914FF2FE21CCF2AB41C828039114
:1059200018D80446C0B2C821B1FBF0F000210138FC
:105930008DF804108DF8050001AA40F2162002210E
:1059400002F06CF830B903AA40F6C1200C2102F035
:1059500065F818B14FF0FF3006B010BD40F2C060DE
:10596000C2F200000480002006B010BDF0B581B086
:1059700040F2BC61C2F200010E880C2306F0030164
:105980004EF2093450F8211003EA5603C0F2CA243B
:10599000720748BF4942C758C6F3811381FB0412FE
:1059A00050F82350F0054FEA91704FEA925148BFEA
:1059B0006D428DF80010910B40EA82008DF80110C5
:1059C00091098DF802108DF803006A464FF4747047
:1059D000042102F023F8E0B9B00648BF7F42A7FBDC
:1059E0000401FA1702FB0411800F8A0D40EA8100BE
:1059F0008DF800208A0B89098DF801208DF802109E
:105A00008DF803006A464FF47570042102F006F821
:105A100020B14FF0FF3001B0F0BD00BF85FB0401A5
:105A2000800F8A0D40EA81008DF800208A0B8909D9
:105A30008DF801208DF802108DF803006A464FF4AE
:105A40007670042101F0EAFF01B0F0BDB0B582B07C
:105A5000054648F61B51C0F60001C5F3C10300F02E
:105A60000300CC5C0A5C8DF8054048F618548DF8AC
:105A70000420C5F38112C0F60004895C205C8DF817
:105A800006108DF80000E05CA15C8DF801008DF837
:105A9000021001AA40F22640032101F0BFFF50BBD3
:105AA0006A4640F22A40032101F0B8FF18BB45F2D4
:105AB0003660C0F27600019044F22660C0F26600C3
:105AC000690700901CD4A80622D4E80505D57720E4
:105AD0008DF8060067208DF8020001AA4FF4886057
