:020000040800F2
:10000000080D002001010008B54D000869400008F6
:10001000E14C000859140008415C00080000000091
:10002000000000000000000000000000E55700088C
:10003000A916000800000000B5550008595900082D
:100040001B0100081B0100081B0100081B01000820
:100050001B0100081B010008AD1600081B01000869
:100060001B0100081B0100081B0100081B01000800
:100070001B0100081B0100081B0100081B010008F0
:100080001B0100081B0100081B0100081B010008E0
:100090001B0100081B0100081B0100081B010008D0
:1000A0001B010008615900081B0100081B01000822
:1000B0006D590008795900081B0100081B01000850
:1000C0001B0100081B0100081B0100081B010008A0
:1000D0001B010008295C0008355C00081B010008B2
:1000E0001B0100081B0100081B010008DFF80CD0F1
:1000F00000F098FF00480047FD6B0008080D002045
:100100000648804706480047FEE7FEE7FEE7FEE7B1
:10011000FEE7FEE7FEE7FEE7FEE7FEE75D590008C3
:10012000ED0000082DE9F0410024061B254671F181
:10013000000605DA01240027D0EB070067EB010178
:10014000161E73F1000605DA0027D2EB070201251F
:1001500067EB030300F0C2FD86460E4617469C4639
:10016000AC4204D00025D0EB050E65EB010624B1AE
:100170000020D2EB000760EB030C704631463A4694
:100180006346BDE8F081421C10F8011B0029FBD139
:10019000801A704730B504460020034600E05B1C1F
:1001A000934203D2E05CCD5C401BF8D030BD000030
:1001B0000FB400B58DB010A909900B9000914FF0CD
:1001C000FF300A9000200C900548069005480790E3
:1001D0006A4609A80F9900F0F7FD0DB05DF814FB11
:1001E000E50D0008030E00082DE9FF5F1D464FF0E6
:1001F000FF3BD5E9014691465F464FF00008A969EB
:100200007F1C01988847296A824688470028F6D1D2
:10021000BAF1FF3F0CD024F4C064002E19DD600653
:1002200014D5BAF12B0F09D0BAF12D0F0ED103E07E
:10023000584604B0BDE8F09F44F48064A9697F1C6F
:1002400001988847761E8246002E02DDBAF1300FF3
:1002500003D0B9F1000F26D032E0A969761E44F42C
:1002600000747F1C019888478246002E05DDBAF194
:10027000780F06D0BAF1580F03D0B9F1000F10D0A3
:100280001EE0B9F1000F02D0B9F1100F18D1A96921
:10029000761E24F400747F1C019888478246102043
:1002A00002E0082000E00A20814609E008FB090876
:1002B000A969761E44F400747F1C01988847824621
:1002C000002E05DD4946504600F06AFD0028EDDAB3
:1002D000E96901988847A00502D46FF00100A8E7FA
:1002E000E00725D1600613D5600502D5C8F10000EE
:1002F00000E0404629680A1D2A600968220501D5E8
:10030000087015E0220701D5088011E008600FE0B1
:100310002868011D29600068210502D580F8008049
:1003200006E0210702D5A0F8008001E0C0F80080B7
:1003300038467EE72DE9FF4F087883B09946FF28BD
:1003400005D0491C2D2804D00024002008E00020FE
:100350000BE00124F9E700EB800003EB4000491CAF
:100360000B78FF2BF7D104B140420023029314789D
:1003700019461D462D2C01D02B2C04D1521C2D2C9E
:1003800013D000240294AA461478FF2C0FD00A251B
:10039000A3FB057801FB05814FF0000C03FB0C115A
:1003A000521CE3194AEB0101EEE70124EAE781441C
:1003B00053EA010002D019F5C87F06DA039800213C
:1003C000C0E9001107B0BDE8F08F0025AE4E2F4602
:1003D000DFF8B882184600F0D0FDCDE90001B9F190
:1003E000000002DAC9F1000400E004460023A74A35
:1003F0001AEB030B42EB045A12E0E00707D02A463F
:1004000033463846414600F0B4FA074688462A4645
:1004100033461046194600F0ACFA05460E46641005
:10042000002CEAD1DDE90001B9F1000F5A4653462C
:1004300006DA00F010FB3A46434600F00CFB05E0FC
:1004400000F097FA3A46434600F093FA029A0AB14E
:1004500081F00041039AC2E90001B3E72DE9FF4FA3
:100460001F468DB0D7E901464FF0FF382E20454694
:100470004FF000090B90B9696D1C0E988847396AD6
:10048000824688470028F6D1BAF1FF3F0AD024F40B
:10049000D064002E11DDBAF12B0F08D0BAF12D0F68
:1004A0000BD102E0404611B08DE744F48064B96995
:1004B0006D1C0E9888478246761E6946600501D5F8
:1004C0002D2000E02B208DF8000001F1010B0DF133
:1004D000200809E0B9696D1C0E98884782460F987C
:1004E00044F40074761E0560002E02DDBAF1300F70
:1004F000F0D00B998A453ED144F0800406E00F9974
:10050000681CA9F1010944F400740860B9696D1C04
:10051000761E0E98884782463028F0D02BE00B9943
:100520008A4505D1200603D444F08004761E18E0E5
:10053000504608F097FB08B30DF11302761EAAF19E
:10054000300044F40074934506D20BF8010B2006EA
:1005500007D5A9F1010003E0200602D409F101004A
:100560008146A00502D50F99681C0860B9696D1C09
:100570000E9888478246002ED1DC53E0002E51DDD4
:10058000BAF1650F02D0BAF1450F4BD1A00549D59C
:10059000B9696D1C24F44074761E0E988847824613
:1005A000002E0CDD2B2804D0BAF12D0F07D144F416
:1005B0008074B9696D1C0E9888478246761EE005E6
:1005C00001D52D2100E02B2108F8011BCDF82C804E
:1005D00021E00DF12901761E44F4007488450CD207
:1005E000AAF1300010F0FF0088F8000002D10B994A
:1005F000884509D908F1010806E0E00501D524483D
:1006000001E042F20F708146B9696D1C0E9888476F
:1006100082460F980560002E04DD504608F022FB4C
:100620000028D6D1F9690E988847FF208BF8000082
:1006300088F800000020069007904B466A4608A9FB
:1006400006A8FFF777FEA00502D46FF001002AE7A5
:1006500014F0240F0AD0E00714D1DDE9061238683F
:10066000031D3B600068C0E900120BE0DDE90601F4
:1006700000F002FB0146E00704D13868021D3A6031
:100680000068016028460EE7000014400000F03FBB
:10069000F1D8FFFFF0B480EA0102D40F4200B2EBC0
:1006A000410F02D20246084611464A0042D0C30D0D
:1006B000DDB2C1F3C752AD1A202D35DAC1F31601F0
:1006C00041F4000204B15242C5F1200602FA06F1DB
:1006D0002A411044B3EBD05F23D0C4B1012DA0EB6D
:1006E000C35009DCF0BC4FF0004202EAC352DBB257
:1006F00000F5000000F09FBB400000F1807000EBAF
:10070000C350A0F1807040EAD170490009E0490867
:1007100041EAC071A0EBC35000F50000400800EBB7
:10072000C350F0BC00F07EBB6142012202EB4101EC
:10073000001BF6E7F0BC704781F00041AAE780F0AB
:100740000040A7E780EA010210B502F00043400034
:1007500022D04A001FD0010E01EB1261C0F35600F7
:10076000C2F3560240F4000042F40002A0FB022053
:1007700000047F39140400D0401C50EA124001D418
:100780004000491EC2B20C0604EBD010401C4008C9
:10079000802A02D003E0002010BD20F001000029D3
:1007A00000DA0020184310BD30B480EA010202F0E4
:1007B000004530F0004221F0004013D090B1C30D4D
:1007C000D40DC2F31601C0F31600E41A41F400017F
:1007D00040F400027D34914201D3641C00E04900E2
:1007E000002C02DA30BC002070474FF400000023D8
:1007F000914201D3891A034340084FEA4101F7D1DE
:1008000051B1914202D14FF0004105E002D24FF0C8
:10081000010101E06FF0010103EBC450284430BC3A
:1008200000F000BB2DE9FE4F804681EA0300C00FB7
:100830000C46009021F0004123F00045B8EB020087
:10084000A94105D24046214690461C460B46024629
:1008500023F00040104347D0270DC7F30A00C3F32D
:100860000A510290401A019040286BDAC3F313003A
:1008700040F4801B0098924620B10023D2EB030A7B
:1008800063EB0B0B01985946C0F14002504600F053
:1008900056FA06460D4650465946019A00F06EFA41
:1008A00010EB08006141002487EA115284EAE773E3
:1008B0001A4340D0009A62B3019A012A4FEA0752C4
:1008C00015DC001B61EB02014FF0004202EA075207
:1008D000CDE90042001C41F5801132462B4600F064
:1008E000E7FA03B0BDE8F08F40462146F9E7001B68
:1008F00061EB0201001C41F5801300185B412018D8
:10090000A2F5001747EB030140EAD570B6196D4117
:1009100011E06D084FEA360645EAC0754FEA075206
:10092000001B61EB0201001C41F5801149084FEAF0
:1009300030000019514132462B4603B0BDE8F04F5C
:1009400000F0A7BA0098012240000023D0EB020279
:1009500063EBE073009821464FEAE074B8EB0000C7
:1009600061EB0401E9E783F000435BE781F00041BC
:1009700058E72DE9FE4F81EA030404F0004421F01A
:10098000004100944FF0000B23F0004350EA0104B3
:100990005ED052EA03045BD0C3F30A54C1F30A5594
:1009A0002C44A4F2F3340194A0FB0254C1F31301CC
:1009B00041F48011C3F3130343F4801301FB024499
:1009C00000FB034E840A970A44EA815447EA83579E
:1009D000A4FB076802958D0A05FB07854FEA932C57
:1009E00004FB0C542705029D4FEA065847EA1637C8
:1009F000B5EB08056EEB070C870E920E47EA8117E0
:100A000042EA8312A7FB0201B6EB0B0164EB000480
:100A10002B0D43EA0C335E1844EB1C50DA4651466A
:100A2000E7FB0201C5F313044FEA0B3343EA145307
:100A30004FEA0432019C43EA0603A4F10C04029439
:100A4000009CCDE900B400F033FA03B0BDE8F08FAC
:100A500000200146F9E72DE9F04D81EA030404F096
:100A6000004B21F0004514464FF0000A23F00041EE
:100A700050EA050220D054EA01021DD0C5F30A57FE
:100A80000246C5F31303C1F31300C1F30A5640F441
:100A9000801543F48013A7EB0608101BD64608F216
:100AA000FD3873EB050002D308F1010801E092184C
:100AB0005B41B8F1000F03DA00200146BDE8F08D7C
:100AC00000204FF48011064684460EE0171B73EB9E
:100AD000050705D3121B63EB050306434CEA010C23
:100AE00049084FEA300092185B4150EA0107EDD106
:100AF00052EA030012D082EA040083EA05010843A7
:100B000005D0101BAB4106D20122002306E00022D3
:100B10004FF0004302E06FF0010253101AEB0600A1
:100B20004CEB085110EB0A0041EB0B01BDE8F04D16
:100B300000F0AFB9002801DBC0F10040002901DB63
:100B4000C1F10041814201D8012070470020704767
:100B5000002801DBC0F10040002901DBC1F10041A8
:100B6000814201D20120704700207047002801DB3C
:100B7000C0F10040002901DBC1F10041814201D9EF
:100B80000120704700207047002801DBC0F10040C1
:100B9000002901DBC1F10041814201D101207047F0
:100BA00000207047C10F80EAE0700844CA0796230E
:100BB000002100F040B996230022114600F03BB915
:100BC0000EB5C10F80EAE0700844CA07002140F268
:100BD00033438DE80E000A460B4600F069F903B076
:100BE00000BD00F0004220F00040C10DC0F316002F
:100BF00040F400007F2901DA00207047962903DCC9
:100C0000C1F19601C84001E096398840002AF4D02D
:100C10004042704770B5C1F30A5201F0004500240C
:100C2000C1F3130140F2FF3341F480119A4201DA1B
:100C3000002070BD40F233439A42A2F2334203DCFB
:100C4000524200F08BF800E090402C43F1D040423B
:100C500070BD00F0004230F000400AD0C10D01F537
:100C60006071C0F3160042EA0151C2084007114307
:100C7000704700200146704701F0004330B421F076
:100C8000004150EA010206D00A0DA2F56072C1F3DC
:100C90001301002A02DC30BC00207047440F44EAF4
:100CA000C104C100E01830BC00EBC25000F0BAB87B
:100CB00030B50B46014600202022012409E021FA2C
:100CC00002F59D4205D303FA02F5491B04FA02F529
:100CD0002844151EA2F10102F1DC30BD2DE9F05FC0
:100CE0000546002092469B4688460646814640249B
:100CF0001BE0284641464746224600F02FF853465F
:100D00005A46C01A914110D311461846224600F0A7
:100D100016F82D1A67EB01084F46224601200021E4
:100D200000F00DF817EB00094E41201EA4F101045C
:100D3000DFDC484631462A464346BDE8F09F202A7C
:100D400004DB203A00FA02F1002070479140C2F122
:100D5000200320FA03F3194390407047202A04DB54
:100D6000203A21FA02F00021704721FA02F3D04024
:100D7000C2F120029140084319467047202A06DB41
:100D8000CB17203A41FA02F043EAE07306E041FA59
:100D900002F3D040C2F12002914008431946704747
:100DA0003A2800D2303820F02002412A01D3A2F1A3
:100DB0003700884201D34FF0FF307047026811447A
:100DC0001378016018467047D160044951610449A5
:100DD000116200211161114600F042B9BD0D0008F9
:100DE00055100008426842B1016811F8013B23B177
:100DF000521EC0E90012184670470121C160881ECA
:100E0000704742685AB1C368016843B983688B422E
:100E100005D0491E521CC0E90012002070474FF057
:100E2000FF3070470029A8BF7047401C490008BF29
:100E300020F00100704710B4B0FA80FC00FA0CF00A
:100E400050EA010404BF10BC704749B1CCF1200442
:100E500021FA04F411FA0CF118BF012121430843CF
:100E6000A3EB0C01CB1D4FEA00614FEA102042BFFB
:100E7000002010BC704700EBC35010440029A4BFF1
:100E800010BC7047401C490008BF20F0010010BC96
:100E9000704710B5141E73F1000408DA401C41F1CC
:100EA000000192185B411A4301D120F0010010BDEE
:100EB0002DE9F04D92469B4611B1B1FA81F202E064
:100EC000B0FA80F220329046FFF739FF04460F4611
:100ED00040EA0A0041EA0B0153465A46084313D040
:100EE000114653EA010019D0C8F140025046FFF7FD
:100EF00035FF05460E46504659464246FFF71FFF4E
:100F0000084305D0012004E020463946BDE8F08DB5
:100F10000020054346EAE0762C4337430A986305F0
:100F2000E40AA0EB08000022FD0A44EA47540A3014
:100F300002D500200146E9E7010510196941DDE904
:100F4000084500196941BDE8F04DA2E770B521F0F0
:100F5000004303430CD0C1F30A550024D5EB04052C
:100F600064EB0403D617AD1AB34102DB002001463F
:100F700070BD201841EB025170BD0EB540F23342F6
:100F800002920022CDE900221346FFF791FF03B041
:100F900000BDC1F30A52C1F3130140F2FF3341F423
:100FA00080119A4202DA00200146704740F2334332
:100FB0009A42A2F2334202DC5242FFF7CFBEFFF761
:100FC000BEBE000030B5041E71F1000404DB4FF01A
:100FD0000044404264EB0101141E73F1000405DB80
:100FE0001C464FF00043524263EB04038B4208BFA0
:100FF000824230BD30B5041E71F1000404DB4FF0B5
:101000000044404264EB0101141E73F1000405DB4F
:101010001C464FF00043524263EB0403994208BF61
:10102000904230BD1CB50948009009480190054622
:10103000009C06E0E06840F0010394E80700984750
:101040001034AC42F6D3FFF755F80000B0A9000801
:10105000D0A90008C0B24FF4F05100F0E9B9000087
:101060002DE9F34F8BB04FF0000801F10C000C4656
:101070004FF0010B46460DF1080A0190626901210B
:1010800001989047051E2DD0252D2CD0216A884728
:10109000C0B16269012101989047216A8847002800
:1010A000F7D1411E62690198904700E0761CA16962
:1010B0000B988847216A88470028F7D1E1690B9887
:1010C0008847DBE7A1690B9888470746A84201D10A
:1010D000761CD3E7E1690B9888477F1C02D1B8F1F1
:1010E000000F6FD046E1002762693D4639460198FE
:1010F00090472A2804D1626901210198904701256F
:10110000DFF884926269012101989047A0F13001D3
:101110000A290AD24F45E5DC07EB870100EB4107BE
:10112000303FDFD445F01005ECE7E90601D46FF05D
:1011300000476C280AD04C2814D0682815D06A289B
:101140000DD074281CD07A281AD01DE062690121C4
:10115000019890476C2802D045F0040514E045F052
:1011600002050DE045F020050AE0626901210198C1
:101170009047682802D045F0080505E045F4006571
:101180006269012101989047C4E9015765283DD063
:1011900019DC58287AD00CDC452837D004DC252807
:1011A00026D0412831D131E046282FD047282CD1F4
:1011B0002CE05B2877D0612828D063287CD0642875
:1011C00023D15AE0D0E06F2848D008DC66281DD033
:1011D00067281BD0692821D06E2816D127E07028F7
:1011E00045D0732868D0752847D078280DD14DE0B8
:1011F000A1690B988847054625283FF469AFE16946
:101200000B9888476D1C3FF46AAFB3E023466A46EB
:101210006FF001000B99FFF721F99EE045F04000C7
:101220006060A80723464FF0000236D43EE0E8078E
:101230007FF447AF2068011D21600068290501D5B2
:1012400006701BE7290701D5068017E7A90703D514
:10125000F117C0E9006111E706600FE745F04000B3
:101260006060A80723464FF0080216D41EE040F63F
:101270000E0125EA0100606016E045F04000606064
:10128000A80723464FF00A0207D40FE045F04000BC
:101290006060A80708D5234610226FF001000B9963
:1012A000AFF3008059E007E0234610226FF0010001
:1012B0000B99FEF799FF50E04FF000094F464B465F
:1012C000632802D05B2806D040E0E80601D4012064
:1012D000A06001273AE062690121019890475E28E9
:1012E00005D14FF00109626949460198904721698B
:1012F00039B900210A46534643F82120491C0829E0
:10130000FADBB0B3216969B9C11700EBD16253119F
:101310000AEB830122F01F02821A01200B68904021
:1013200003430B6062690121019890475D28E8D171
:10133000B9F1000F09D00020514651F82020D243C6
:1013400041F82020401C0828F7DB02AB224600971A
:101350006FF001000B99AFF3008000280CDA401CFD
:1013600008D1BBF1000F05D04FF0FF300DB0BDE844
:10137000F08FFFE74046F9E7E90701D108F10108DE
:1013800006444FF0000B79E6CCCCCC0C2DE9F04DA7
:1013900000231A461B1A8A4103DB00200146BDE8E0
:1013A000F08DC1F30A52C1F3130141F480154FF0DF
:1013B000000BD10702D100186D41521E00270446D0
:1013C00040F2FF11384601EB620A3E468046024673
:1013D00000204FF48011FFF7C1FCC2197141BB1806
:1013E00046EB0100B4EB030C75EB000C04D3E41ADC
:1013F00065EB000517460E46241908F101006D4102
:1014000080463428E3DDF91946EB0600091BA841A4
:1014100003D24FF0FF32134601E0002213461BEBCC
:10142000070046EB0A51BDE8F04DFFF732BD000062
:101430007F2801D9002208E0064A02EB5002C007CB
:10144000127800D1120902F00F02012090400840EA
:1014500070470000309B0008FEE7000070B588B0C0
:1014600000208DF801000DF1010368207521012293
:1014700005F084FA4AF64510C0F6000008F0A8FA14
:101480009DF80110682940F0C58005F083FD08B182
:1014900008B070BD782006F07DFF002874D0782059
:1014A00005F0C2FC00287AD0C82006F0CFFE002844
:1014B0007ED004F0C3FD002800F08280AC2004F050
:1014C000ADFF002800F0858040F2731004F066FC48
:1014D000002800F08B80C82004F0F8FE002800F0FF
:1014E000918005A802A906F0FDF807283ED101A8C1
:1014F00005F028FDDDE90506079CFFF753FB019D7C
:1015000001462846FFF71EF9FFF76BFB05903046B2
:10151000FFF748FB01462846FFF714F9FFF761FB88
:1015200006902046FFF73EFB01462846FFF70AF9E2
:10153000FFF757FB079005A804F000FF0DF102002C
:1015400005F0E0FC02ABBDF802000ECB4143029176
:1015500002FB00F15843049002A8039104F056FEE8
:101560004AF66510C0F6000008F032FA012006F0D5
:10157000AFFD00288CD14AF6FD00C0F6000008F04F
:1015800027FA08B070BD00BF4AF64510C0F600004B
:1015900008F01EFA782005F047FC002884D122A02C
:1015A00008F016FAC82006F051FE00287FF481AF3B
:1015B00026A008F00DFA04F041FD00287FF47EAF6C
:1015C0002CA008F005FAAC2004F028FF00287FF4D6
:1015D0007BAF4AF62010C0F6000008F0F9F940F29F
:1015E000731004F0DBFB00287FF475AF4AF6B600F9
:1015F000C0F6000008F0ECF9C82004F067FE0028EF
:101600007FF46FAF4AF6DA00C0F6000008F0E0F9A8
:1016100067E700BF02A007F0C1F904F01DFB00BF9F
:1016200049443A25580D0A006D70755F636F6E6608
:1016300069677572655F6669666F20636F6D706C50
:10164000657465202E2E2E2E2E2E0D006D70755F6A
:101650007365745F73616D706C655F726174652032
:10166000636F6D706C657465202E2E2E2E2E2E0DE0
:1016700000000000646D705F6C6F61645F6D6F747B
:10168000696F6E5F6472697665725F6669726D77A5
:1016900061726520636F6D706C657465202E2E2EEF
:1016A0002E2E2E0D0000000070470000012000F0DB
:1016B000CFBB0000EFF3108072B600BFFEE7000062
:1016C0002DE9F04F83B0814604F01AF840F6FC0192
:1016D000C2F20001B9F1010F086031D103F06CFFD3
:1016E00040F23410C2F20000006840F2FC1180F0B9
:1016F0000040C2F20001086040F23C10C2F200005B
:10170000B0F90210B0F904404842FFF74BFA40F23A
:101710000021C2F2000108602046FFF743FA40F2C0
:101720004211C2F2000140F20422B1F90410C2F2E7
:10173000000210600846FFF735FA83461CE100BF3F
:10174000D020452102F092FC0446D020462102F030
:101750008DFC40EA0420FFF72EFA40F2A818C2F2EE
:101760000008C8F82C00D020472102F07FFC044676
:10177000D020482102F07AFC40EA0420FFF71BFA4F
:10178000C8F83000D0203B2102F070FC0446D02085
:101790003C2102F06BFC40EA0420FFF70CFAC8F889
:1017A0003400D0203F2102F061FC0446D0204021CB
:1017B00002F05CFC40EA04252846FFF7FCF9D8E972
:1017C0000B678346C8F8380030464FF08E41FFF76C
:1017D000CDF900210446CCF280713046FEF75AFF65
:1017E000824638464FF08E41002C08BFB246FFF7C4
:1017F000A1F948B90021CCF280713846FEF74AFFC2
:101800000290C8F8300000E00297D8F834404FF05A
:101810008E412046FFF7AAF900210746CCF28071DD
:101820002046FEF737FF0646002F08BF2646B5F5CF
:10183000004F07D9CFF6FF752846FFF7B3F9834667
:10184000C8F8380086F00040C8F83400FFF701FA05
:10185000044658460D46FFF7FCF902460B46204663
:10186000294607F0E7FF48F20003C4F266030022AE
:10187000FFF77FF84DF2F14242F2FB13C5F2C83296
:10188000C4F20903FFF7E7F8FFF7F6F90021054670
:10189000C8F83C00C4F270115046FEF7FBFE40F25F
:1018A0000021C2F200010860FFF7D3F946F2666337
:1018B000C4F230034FF06632FFF7CDF8FFF7DCF9E2
:1018C0000746B9F1030FC8F82C000DD0B9F1020F8B
:1018D00045D12846394602F069FED8F83000D8F8DC
:1018E00038B002903BE000BF40F24000C2F200007E
:1018F000046829462046FEF725FFFFF7AAF9019064
:101900008A464FF07E502146FEF716FFFFF7A1F9F9
:101910000546D8F804000E46FFF79BF90446384602
:101920008946FFF796F941F27B4247F6E123C4F27C
:10193000AE72C3F67473FFF71CF822464B46FEF7EF
:1019400071FF02460B4628463146FFF712F8019A0E
:101950005346FEF767FFFFF78FF9C8F80400D8F881
:10196000040040F2FC11C2F20001086040F20420C1
:101970000299C2F20000016040F2F810C2F20000C9
:10198000C0F800B003B0BDE8F08F000070B581B0C2
:101990000022009290F82420012A03D10221084657
:1019A00001B070BD4A680123062A02EB820E80F85E
:1019B000243007D8D0F800C06FF004030CF13406CF
:1019C0000CE000BFD0F800C00C2A87BF0CF12C0639
:1019D0006FF040030CF130066FF022030EEB0302B0
:1019E0001F23346803FA02F50B6824EA050503FA9D
:1019F00002F22A433260092B03EB43021AD9DCF8C6
:101A00000C601E3A072589689540AE43914023F04B
:101A100001023143102ACCF80C1015D142F20041DA
:101A2000C4F201018C4517D0816A41F02001816226
:101A300001210AE0DCF81030072689689640B3439C
:101A400091401943CCF810100021002280F8242086
:101A5000084601B070BD00BF89680902F4D4DCF803
:101A60000810102B41F40001CCF80810ECD140F222
:101A70004401C2F2000109684DF68362C4F21B32D0
:101A8000A1FB0212910C01EB810149000091009928
:101A90000029D9D000990139009100990029D3D0AB
:101AA00000990139009100990029CDD000990139A0
:101AB000009100990029C7D000990139009100993F
:101AC00000294FF00001E5D1BFE70000002804BF66
:101AD00001207047B0B50446806A28B12168886843
:101AE000C0070CD115E000BF0020E06284F824009C
:101AF000204600F097F821688868C00709D08868F8
:101B000020F00100886000F0C3FA21688A68D207DB
:101B100026D1A06AC0063AD4A06A41F202129043CC
:101B20000230A062E069D4E9013240EA030C531E9E
:101B3000B3FA83F35D091346B2F5807F18BF2B0219
:101B4000207D257B01284CEA45002CD135B3A56AC0
:101B500045F02005A562E56A45F00105E56222E051
:101B6000054602E08868C007D3D000F091FA401B18
:101B700021680328F6D38868C007F3D0A06A40F034
:101B80001000A062E06A40F00100E062A06AA06A72
:101B900040F01000A0620120B0BD00BFA56903EBBA
:101BA0004533A3F5C0534D68B2F5807F25F46945F0
:101BB00043EA05034B608B684FF2FD75CFF6E17584
:101BC00003EA050343EA00038B6001D0012A07D131
:101BD00022690023CFF6F07303EB025201E000BF4D
:101BE0000022CB6A23F470031A43CA62896840F664
:101BF000FE62CFF61F721140814207D10020E062E1
:101C0000A16A012262F30101A162B0BDA06A40F0A5
:101C1000100020F00200A062E06A40F00100E062E3
:101C20000120B0BD80B586B0014640F60040C4F248
:101C30000100096800F5C05291424FF00001CDE962
:101C40000411CDE9021101D006B080BD41F21801A6
:101C5000C4F202010A6842F400720A600A6802F4DF
:101C600000720192019A0A6842F008020A6009684B
:101C700001F00801019101990221029103210391D0
:101C800002A900F0F1F806B080BD0000014690F80E
:101C90002100022816D10868D1E90FC3026822F09A
:101CA0000E020260026822F001020260012000FAC6
:101CB00003F2CCF8042081F821000020002281F8F2
:101CC00020207047042088630120002281F8202012
:101CD0007047000090F82110022923D1026840F2D9
:101CE000040C1168C4F2020C21F00E01116013689B
:101CF0002F21C4F202018A4223F00103136015DD93
:101D00003023C4F202039A421CD04423C4F20203DB
:101D10009A421BD05823C4F202039A421CD14FF4BA
:101D2000803321E004218163012070470823C4F23D
:101D300002039A420ED01C23C4F202039A420BD132
:101D4000102311E04FF480730EE000BF4FF4805376
:101D50000AE000BF012307E00CF168014FF0807337
:101D60008A4208BF4FF480130121CCF8003080F87C
:101D70002110416B0022002980F8202004BF0020A0
:101D8000704780B58847002080BD0000012818BF3B
:101D9000704770B540F2BC04C2F200042078B0FA7B
:101DA00080F149090028217049D10220FFF788FC01
:101DB00040F28900C2F200008078002845D003F08C
:101DC000D5FCA06003F0F0FC40F2FC12C2F200026D
:101DD00040F20021C2F2000112680968E06010467A
:101DE00003F050FFD4E902212061104606F05CFDAB
:101DF000216940F6F40540F6F80660610844C2F235
:101E00000005C2F200062860306003F043FE296836
:101E10003268A061091A104429603060084641F612
:101E2000F42103F00FFF31682860084641F6F421E1
:101E300003F008FF01462868316002F053FF40F2CA
:101E40001440C4F2010001210160BDE870407047F8
:101E500040F21441C4F201010A68024214BF086052
:101E60007047FFF793BF00002DE9F04F82B00E6876
:101E7000002E00F0FD8041F20042C4F20102042372
:101E800040F2004E904208BF03234FF6FF7CC4F29D
:101E9000010E009300240123C1F2100C4FF0000A40
:101EA0004FF000094BE000BF41F20002C4F2010212
:101EB000009F904208BF022704F00C030F229A40B3
:101EC0002BEA020207FA03F34FEA9A051A4346F88F
:101ED00025204E6840F20C45F202DEF8082054BF7F
:101EE00022EA080242EA0802C4F20105CEF80820FC
:101EF0002A68B30254BF22EA080242EA08022A60B2
:101F0000B303DEF8042054BF22EA080242EA0802C2
:101F1000F303CEF80420DEF800204FF0010354BF95
:101F200022EA080242EA0802CEF800200E680AF10E
:101F3000010A36FA0AF204F1040400F0998003FA67
:101F40000AFB16EA0B08F1D04E68664512DC122E29
:101F500056D8DFE806F0350B4D49555555555555C2
:101F60005555555555555545510000BFD1F80C9064
:101F700046E000BF4FF6FF72C1F2210296420FDC2D
:101F80000022C1F2110296421AD00022C1F21202BE
:101F9000964215D00022C1F22102964210D02FE0C5
:101FA0000022C1F2220296420AD00022C1F231027E
:101FB000964205D00022C1F23202964220D100BFE3
:101FC0008A684AB1012A14BFC0F814B0C0F810B032
:101FD0004FF0080914E000BF4FF0040910E000BF03
:101FE000CA6802F104090BE04FF0000908E000BFE5
:101FF000CA6802F1080903E0CA6802F10C0900BFCF
:1020000002462646B8F5807F24BF0432203E17687A
:102010000F25B54027EA050509FA06F63543156090
:10202000CA79D2067FF582AF41F21803C4F20203E7
:102030001A68AEF57E7642F001021A601A6802F064
:1020400001020192019A2AF0030256F802B040F60A
:102050000002C4F20102904208D040F60042C4F2ED
:10206000010290427FF420AF012725E7002723E7F4
:1020700002B0BDE8F08F00008068084018BF012062
:1020800070470000002A08BF090401617047000082
:1020900040F60010C2F200000068704740F21400E1
:1020A00040F60011C2F20000C2F2000100780A6896
:1020B000104408607047000080B542F20000C4F28E
:1020C0000200016841F010010160032000F0A2F855
:1020D0000F2000F005F800F027F8002080BD000078
:1020E00070B540F21406C2F2000640F244013278A4
:1020F000C2F200014FF47A730968B3FBF2F20446AE
:10210000B1FBF2F1084600F01DFC0F2C4FF0010569
:1021100008D838B94FF0FF3021460022002500F0E2
:102120004DF87460284670BD82B041F21800C4F2C8
:1021300002000168022241F001010160016801F022
:10214000010101910199416841F08051416040686D
:1021500000F08050009000980420C4F20100016853
:1021600062F31A61016002B070470000002848BFA6
:10217000704700F01F01012202FA01F11C2202EA5D
:10218000D0004EF28012CEF200028150BFF34F8F8A
:10219000BFF36F8F70470000002848BF704700F002
:1021A0001F01012202FA01F11C2202EAD0004EF2C4
:1021B0000012CEF2000281507047000010B54EF6BA
:1021C0000C5CCEF2000CDCF80030C3F3022E8EF073
:1021D0000704042C28BF0424BEF103034FF0FF3E84
:1021E0000EFA04F438BF0023A14399400EFA03F31A
:1021F0009A43114300F00F0200F160430901043AD1
:1022000003F564436244002848BF02F10C031970CF
:1022100010BD00004EF60C51CEF200010A684FF6D8
:10222000FF031A4060F30A2242F0806040F0FD7024
:10223000086070472DE9F04182B00446007841F211
:102240001C06C007C4F202064AD030685FEAC00824
:1022500008D4306840F080503060306800F0805022
:102260000190019847F20007C4F200073868C005E2
:1022700012D4386840F480703860FFF709FF0546D3
:102280003868C00508D4FFF703FF401B6428F7D95E
:10229000032002B0BDE8F081706810F4407012D0E5
:1022A000616801F4407188420DD0706840F240428C
:1022B000C4F24222012320F4407113600023C007BE
:1022C0001360716026D17068616820F44070084323
:1022D000B8F1000F706003D4306820F08050306097
:1022E0002068810707D556F8181CA26821F44041E0
:1022F000114346F8181CC00607D556F8180CE168BB
:1023000020F48000084346F8180C002002B0BDE815
:10231000F08100BFFFF7BCFE054641F2883700BFE1
:1023200070688007CFD4FFF7B3FE401BB8424FF070
:102330000300F5D9EAE70000002804BF0120704738
:102340002DE9F04381B042F20008C4F202080446CD
:10235000D8F800000D4600F0070081420CD9D8F8EB
:10236000000020F007002843C8F80000D8F800005B
:1023700000F00700A8426CD1206841F204098107EF
:10238000C4F2020917D5410705D5D9F8001041F468
:10239000E061C9F80010010705D5D9F8001041F433
:1023A0006051C9F80010D9F80010A26821F0F001BE
:1023B0001143C9F80010C00742D1D8F8000000F05E
:1023C000070085420CD2D8F8000020F0070028430F
:1023D000C8F80000D8F8000000F00700A84238D183
:1023E0002068410707D5D9F80010E26821F4E061C0
:1023F0001143C9F80010000708D5D9F80000216979
:1024000020F4605040EAC100C9F80000D9F800206B
:1024100002F00C00082841F20020C0F27A004DD1F1
:1024200049F69033C2F38341C0F60003595CD203EE
:1024300038D440F60010C0F23D0048433EE000BFF3
:10244000606859F8041C022808D0012826D18903A5
:1024500006D4012001B0BDE8F08300BF8901F8D5A2
:10246000D9F8001021F003010843C9F80000FFF774
:102470000FFE064641F28837D9F80000616800F087
:102480000C00B0EB810F98D0FFF702FE801BB84222
:10249000F2D9032001B0BDE8F08300BF8907D8D589
:1024A000DEE700BFD9F8002049F68E33C2F3404280
:1024B000C0F600039A5C4843B0FBF2F0D9F8001074
:1024C00049F67632C1F30311C0F60002515C40F2C6
:1024D000440220FA01F140F21800C2F20000006844
:1024E000C2F200021160FFF7FBFD002001B0BDE861
:1024F000F083000040F2440041F20401C2F2000007
:10250000C4F202010068096849F68632C1F302216B
:10251000C0F60002515CC8407047000040F2440021
:1025200041F20401C2F20000C4F20201006809682D
:1025300049F68632C1F3C221C0F60002515CC840A0
:1025400070470000002804BF012070472DE9F041CA
:1025500082B00446007841F20006C007C4F20206C9
:102560000CD0706800F00C00042840F081803068C6
:10257000800303D56068002800F04681207880073A
:102580001BD5706810F00C0F09D0706800F00C00BB
:10259000082840F087807068C00300F183803068AD
:1025A000800703D52069012840F02E8130686169D9
:1025B00020F0F80040EAC10030602078000713D412
:1025C000207840072CD4E569002D00F01881706850
:1025D00000F00C00082840F0A780012D40F0048195
:1025E000012002B0BDE8F081A069002800F08480DD
:1025F0000020C4F242200121C0F88014FFF748FDFA
:10260000054600BF706A800700F1B280FFF740FD09
:10261000401B0228F6D9032002B0BDE8F08100BFBC
:10262000F0695FEAC00808D4F06940F08050F061BA
:10263000F06900F080500090009847F20007C4F263
:1026400000073868C00549D4386840F480703860A5
:10265000FFF71EFD054600BF3868C0053ED4FFF7F2
:1026600017FD401B6428F7D9032002B0BDE8F081B4
:10267000706800F00C00082803D17068C0033FF5B3
:1026800076AF61683068002900F00C81B1F5A02FA9
:1026900000F00081B1F5803F40F01A8140F48030B5
:1026A0001CE100BF2069002840F20000C4F2422073
:1026B00000F0888001210160FFF7EAFC054600BFB9
:1026C000306880073FF572AFFFF7E2FC401B02283D
:1026D000F6D9032002B0BDE8F08100BFE168306A9E
:1026E000002900F09D80052900F09280012940F02A
:1026F000AF8040F00100B1E00020C4F24220002190
:10270000C0F88014FFF7C4FC054600BF706A80075C
:102710007FF556AFFFF7BCFC401B0228F6D903201B
:1027200002B0BDE8F08100BF0027C4F242270020BC
:102730003866FFF7ADFC022D05460DD130688001EB
:1027400040F1DE80FFF7A4FC401B02284FF003009D
:10275000F4D902B0BDE8F081306880014FD5FFF7B1
:1027600097FC401B02284FF00300F5D9F1E700BFAA
:1027700040F24400C2F20000006844F6D351C1F2B6
:102780006201A0FB0101480A019000BF00BF01984F
:10279000411E002801913FF413AF00BF0198411E74
:1027A000002801913FF40CAF00BF0198411E0028A2
:1027B00001913FF405AF00BF0198411E002801912F
:1027C000E4D1FDE600210160FFF762FC054600BF91
:1027D000306880077FF5F1AEFFF75AFC401B0228F6
:1027E0004FF00300F4D9B4E77068216A00F4803236
:1027F0008A4209D1616A00F47010884204D1002035
:1028000002B0BDE8F08100BF012002B0BDE8F08158
:1028100040F004003062306A40F001001EE000BF6A
:1028200020F001003062306A20F004003062FFF7CF
:102830002FFC054641F28837306A800720D5FFF724
:1028400027FC401BB8424FF00300F5D981E700BFD9
:1028500020F001003062306A20F004003062FFF79F
:1028600017FC054641F28837306A800708D4FFF725
:102870000FFC401BB842F7D9032002B0BDE8F0813D
:10288000B8F1000F3FF59FAEF06920F08050F06185
:1028900099E600BF40F480203060306840F480301A
:1028A0001CE000BF20F480303060306820F48020CD
:1028B0003060FFF7EDFB0546306880037FF55EAEC4
:1028C000FFF7E6FB401B64284FF00300F4D940E714
:1028D00020F480303060306820F480203060FFF7D2
:1028E000D7FB0546306880033FF548AEFFF7D0FBC5
:1028F000401B6428F6D9032002B0BDE8F08100BF78
:10290000206AB0F5803F05D17168A26821F40031DA
:10291000114371607168626A21F4741111430843B4
:10292000706001203866FFF7B3FB04463068800111
:102930003FF565AFFFF7ACFB001B02284FF003002B
:10294000F4D906E7411E0020B0EB116F1CBF012037
:1029500070474EF21002CEF2000251604EF6235143
:10296000CEF20001F0230B700721906011607047D8
:10297000704700007047000090F83C20012A4FF09B
:10298000020236D010B580F83D200268D2F804E08B
:10299000D2F808C00C682EF07003234340F2FF7495
:1029A000C4F20004A24253600ADCB2F1804F13D09B
:1029B00040F20043C4F200039A420DD011E000BF80
:1029C00042F60043C4F201039A4205D040F60003E8
:1029D000C4F200039A4204D149682CF080031943E1
:1029E00091600121002280F83D1080F83C20BDE874
:1029F0001040104670470000002804BF01207047B7
:102A000010B590F83D1031B9002180F83C10044613
:102A100000F070F82046022180F83D10016840F275
:102A2000FF740B68C4F2000442F6004CA142C4F2E9
:102A3000010C15DCB1F1804F1AD040F20042C4F213
:102A40000002914214D0A14218DCB1F1804F1DD098
:102A500040F20042C4F20002914217D01AE000BFD7
:102A6000614505D040F60002C4F200029142EAD16D
:102A7000826823F070031343A142E6DD614505D06F
:102A800040F60002C4F20002914203D1026923F42D
:102A900040731343846923F08002D0F804E0C368D4
:102AA000224361450A60CB62C1F828E002D1426945
:102AB000CCF8302001224A610B69DB0703D00B6997
:102AC00023F001030B6180F8462080F83E2080F857
:102AD0003F2080F8402080F8412080F8422080F894
:102AE000432080F8442080F8452080F83D200020D5
:102AF00010BD000080B582B0006840F60001C4F24D
:102B0000000188421ED042F60041C4F20101884211
:102B100025D141F21800C4F202000168002241F4FC
:102B2000006101600068002100F4006001900198DC
:102B30001920FFF743FB192002B0BDE88040FFF7E2
:102B40002BBB00BF41F21800C4F20200416841F003
:102B500004014160406800F004000090009802B059
:102B600080BD000090F83D1001291CBF0120704776
:102B7000022180F83D10006840F2FF72C168C4F283
:102B80000002904241F00101C16009DCB0F1804FC8
:102B900012D040F20041C4F2000188420CD012E091
:102BA00042F60041C4F20101884205D040F600011E
:102BB000C4F20001884206D1816801F007010629AC
:102BC00004BF00207047016841F00101016000204E
:102BD0007047000090F83C20012A4FF002026CD0B0
:102BE00080B580F83D20D0F800C04FF67772DCF851
:102BF000083023EA0202CCF808200B684F2B29DCAE
:102C00001F2B45DD202B46D0302B44D0402B40F0ED
:102C1000AF80D1F804E0C968DCF82030DCF820206F
:102C200022F00102CCF82020DCF8182022F0F0027B
:102C300042EA011123F00A0242EA0E02CCF818100F
:102C4000CCF82020DCF8081041F0470121F03001D9
:102C500028E000BF6F2B33DDB3F5005F74D0B3F510
:102C6000805F21D0702B40F08380D1E901E3C968F7
:102C7000DCF8082043EA0E0322F47F4243EA0121F4
:102C80001143CCF80810DCF8081041F0770109E096
:102C90000BB1102B6CD1DCF8081021F07001194336
:102CA00041F00701CCF808100022012180F83D1006
:102CB000002180F83C10BDE880401046704700BFFE
:102CC000502B21D0602B53D1D1F804E0C968DCF837
:102CD0002030DCF8202022F01002CCF82020DCF894
:102CE000182022F4704242EA013123F0A00242EAA5
:102CF0000E12CCF81810CCF82020DCF8081041F0A7
:102D0000670121F01001CDE7D1F804E0C968DCF8D3
:102D10002030DCF8202022F00102CCF82020DCF862
:102D2000182022F0F00242EA011123F00A0242EADE
:102D30000E02CCF81810CCF82020DCF8081041F076
:102D4000570121F02001ADE7D1E901E3C968DCF8C2
:102D5000082043EA0E0322F47F4243EA0121114393
:102D6000CCF80810DCF8081041F480419AE700BF65
:102D700001229AE7002804BF012070472DE9F04F97
:102D800081B090F83D2042B9002280F83C200446F2
:102D90000D4600F09DF829462046022280F83D208D
:102DA000026844F20705936842F6004CAB43936017
:102DB00040F2FF731468C4F200039A42C4F2010C9B
:102DC00014DCB2F1804F19D040F20045C4F2000586
:102DD000AA4213D09A4217DCB2F1804F1CD040F2C5
:102DE0000043C4F200039A4216D01AE0624505D0AF
:102DF00040F60005C4F20005AA42EBD1856824F034
:102E000070042C439A42E7DD624505D040F600038A
:102E1000C4F200039A4204D1036924F4407543EAE2
:102E2000050424F080038469D0F804E0C5682343D6
:102E300062451360D562C2F828E002D14369CCF83C
:102E400030304FF0010EC2F814E01569ED0703D0E1
:102E5000156925F00105156195689469D2F820C0BF
:102E6000D1E90038D1E9027B43EA050A8D694FF6C2
:102E7000FF7924EA090447EA05254FF6FC47BD43DC
:102E8000D1E9077644EA0B040B692C4344EA072492
:102E90002CF02207496944EA031347EA080743EA8A
:102EA000063347EA0111C2F808A09361116280F865
:102EB00046E080F83EE080F83FE080F842E080F8AD
:102EC00043E080F83DE0002001B0BDE8F08F000055
:102ED00010B586B0006840F20041C4F2000188429B
:102EE0004FF00001CDE90411CDE902111CD0B0F181
:102EF000804F44D141F21800C4F2020041681C2402
:102F000041F001014160416801F001010191019925
:102F1000016841F004010160006800F004000190C4
:102F20000198032018E000BF41F21800C4F202002B
:102F300041681D2441F002014160416801F0020135
:102F400001910199016841F004010160006800F0FD
:102F5000040001900198C02002900020CDE90300F8
:102F600040F60000C4F2010002A9FEF77DFF2046F2
:102F700002210022FFF722F92046FFF70DF906B0E3
:102F800010BD000080B590F83E2090F83F3090F8DA
:102F900042E090F843C004290AD0B9B9012A4FF0A1
:102FA000010208BFBEF1010F34D0104680BD00BF42
:102FB000012B4FF0010208BFBCF1010FF5D1022136
:102FC00080F83F1080F8431000681EE0012A4FF09F
:102FD000010208BF012BE8D1BEF1010FE5D1BCF120
:102FE000010FE2D1022280F83E2080F83F2080F8D5
:102FF000422080F8432091B10068016A21F001016C
:103000000162016A41F00101016210216FF01002BA
:1030100009E000BF022180F83E1080F842100068ED
:1030200001216FF00102036A1A400262026A114331
:1030300001620168002241F001010160104680BD7B
:103040007047000070B504460068C5680669B1079E
:1030500016D515F0020113D06FF0020101610121B4
:1030600021778069800703D02046FFF7E9FF05E05C
:10307000204600F08FF8204600F010FA002020775C
:10308000700719D515F0040016D020686FF0040100
:10309000016102212177806910F4407F04D020462D
:1030A000FFF7CEFF06E000BF204600F073F8204691
:1030B00000F0F4F900202077300717D515F008004C
:1030C00014D020686FF00801016104212177C069E4
:1030D000800703D02046FFF7B3FF05E0204600F04D
:1030E00059F8204600F0DAF900202077F00619D5CB
:1030F00015F0100016D020686FF010010161082152
:103100002177C06910F4407F04D02046FFF798FF74
:1031100006E000BF204600F03DF8204600F0BEF972
:1031200000202077F00718BF15F0010002D130060B
:1031300009D412E020686FF001010161204600F01F
:103140001DFA300609D515F0800006D020686FF012
:10315000800101612046FFF70BFC700609D515F0D0
:10316000400006D020686FF040010161204600F069
:10317000B3FAB00658BF70BD15F0200008D0216822
:103180006FF0200220460A61BDE87040FFF7F2BBF5
:1031900070BD00007047000090F83C30012B04BF68
:1031A000022070474FEAB202032A00F2F1802DE9B3
:1031B000F043DFE802F003A53B7500BF036842F669
:1031C00000461D6A1A6AC4F2010622F001021A6260
:1031D0001A465C6852F818CFB3428E68D1F800E006
:1031E00025F0020545EA06050CD1CE68D1E905783F
:1031F00024F4407425F00C0526F004063C433543C6
:1032000044EA08042CF0730747EA0E075C609F61EC
:103210004F6809695F631D629F6947F008079F61F6
:103220009F6927F004079F61A6E000BF036842F68C
:1032300000461D6A1A6AC4F2010622F480721A62FC
:103240001A46D3F804C052F81CEFB3428E680C68DB
:1032500025F4007545EA06250FD1CE68D1E9059819
:10326000360240F2FF4725F44065BE4335432CF457
:10327000405748EA090647EA061C2EF07307274321
:10328000C3F804C0DF614F680969DF631D62DF694D
:1032900047F00807DF61DF6927F00407DF616BE0B3
:1032A000036842F60047D3F820C01A6AC4F2010747
:1032B00022F480521A621A465C6852F81C5FD1F8F8
:1032C00000E08E68BB4204D14F6924F4804444EA94
:1032D00087142CF4005747EA063725F4E64646EAF9
:1032E0000E265C60DE614E6809691E641F62DF693C
:1032F00047F40067DF61DF6927F48067DF613AE048
:10330000036842F600461D6A1A6AC4F2010622F0FA
:1033100010021A621A46D3F804C052F8184FB3428A
:103320008E68D1F800E025F0200545EA06150FD19A
:10333000CE68D1E905986FF0400725F0C00507EA8F
:10334000061635432CF4406748EA090647EA860C1E
:1033500024F4E64444EA0E27C3F804C09F614F6892
:1033600009699F631D629F6947F400679F619F69B8
:1033700027F480679F6109021368194311600021D7
:10338000BDE8F043002280F83C200846704700BFAB
:103390000121002280F83C2008467047002804BF25
:1033A0000120704710B590F83D1031B9002180F828
:1033B0003C10044600F070F82046022180F83D10D1
:1033C000016840F2FF740B68C4F2000442F6004C3E
:1033D000A142C4F2010C15DCB1F1804F1AD040F2C9
:1033E0000042C4F20002914214D0A14218DCB1F1B3
:1033F000804F1DD040F20042C4F20002914217D02B
:103400001AE000BF614505D040F60002C4F2000298
:103410009142EAD1826823F070031343A142E6DDB2
:10342000614505D040F60002C4F20002914203D18A
:10343000026923F440731343846923F08002D0F8B7
:1034400004E0C368224361450A60CB62C1F828E00A
:1034500002D14269CCF8302001224A610B69DB07B6
:1034600003D00B6923F001030B6180F8462080F83C
:103470003E2080F83F2080F8402080F8412080F8EE
:10348000422080F8432080F8442080F8452080F8CE
:103490003D20002010BD0000704700007047000074
:1034A000C1B1042908D0082914BF41224022825CFE
:1034B000012A05D016E000BF3F22825C012A11D10B
:1034C0000222082910D0042914BF80F8412080F876
:1034D0003F200BE090F83E20012A03D1022280F821
:1034E0003E2003E00120704780F84020006801F092
:1034F0001F010122036A8A4023EA02010162036A72
:1035000042F64441C4F201011A43A1F14403984236
:1035100002620FD040F2FF71C4F20001884213DC56
:10352000B0F1804F1CD040F20041C4F2000188424B
:1035300016D01CE00A6842F400420A6040F2FF71B3
:10354000C4F200018842EBDD42F60041C4F2010101
:10355000884205D040F60001C4F20001884206D13D
:10356000816801F00701062904BF00207047016847
:1035700041F00101016000207047000010B50068B3
:1035800042F60041C4F20101884241D040F20041BC
:10359000C4F2000188421FD0B0F1804F18BF10BDA7
:1035A00040F28C7EC2F2000EDEF8001040F288037A
:1035B000CA6AC2F200039C694FF6FE7C4FF0FF30EE
:1035C0006245C8BF0120204498614FF6FF70C86271
:1035D000CEF80C0010BD00BF40F2D47EC2F2000E47
:1035E000DEF8001040F28803CA6AC2F20003DC6A07
:1035F0004FF6FE7C4FF0FF306245C8BF01202044EB
:10360000D8624FF6FF70C862CEF80C0010BD00BF44
:1036100040F28804C2F20004607801280AD0B8B9E8
:1036200040F60000C4F201002021FEF725FDF0B9AC
:1036300001200EE040F60000C4F201002021FEF758
:103640001BFD0021617038B1E07868B90FE000BF60
:10365000002060700BE000BF207801210B28E17092
:1036600003D300202171207020780130207040F2B7
:103670004470C2F2000000686FF00101016110BDEA
:10368000B0B5044690F83C0001284FF0020008BF96
:10369000B0BD012584F83C5084F83D00204602F07E
:1036A00071F900284FF0010006D0002184F83D5048
:1036B00084F83C10B0BD00BF2068C16821F0400113
:1036C000C160C16821F48041C1600020002184F8FC
:1036D0003D5084F83C10B0BD7047000070470000BA
:1036E00070470000B0B582B001680A68CC684B69C9
:1036F00002F02F05202D04F0200505D125B102B0E0
:10370000BDE8B04002F010BA5FEA027C1EBF03F0D1
:10371000010E04F4907313EB0E0341D1036BD50635
:1037200018D5012B16D114F0100313D000220192EA
:103730000A6801924A680192019A496949064BD484
:10374000818DC28DC38D002B18BF914240F0F48152
:1037500002B0B0BD13062DD514F080032AD090F826
:103760004120212AF4D18268B2F5805F03D1026939
:10377000002A00F06782026A531C036212784A60D2
:10378000C28C013A1304C284E2D1C86820F08000E0
:10379000C860C86840F04000C86002B0B0BD00BF5B
:1037A000D30718BF14F4807340F0D080530700F1A2
:1037B000D380D8E05206CBD514F04002C8D0CA68F6
:1037C00022F04002CA60202180F8411002B0BDE81A
:1037D000B04000F047BC00BFC16B0A68526893B2AA
:1037E000002BB5D0858DAB42B2D2C2858969202924
:1037F00000F0A180016851E8031F026821F4807184
:1038000042E80313DBB1016851E8031F026821F4A9
:10381000807142E8031393B1016851E8031F026805
:1038200021F4807142E803134BB1016851E8031F92
:10383000026821F4807142E80313002BDAD1016899
:1038400051E8051F026821F0010142E80513C3B3E6
:10385000016851E8051F026821F0010142E80513E3
:103860007BB3016851E8051F026821F0010142E8BD
:10387000051333B3016851E8051F026821F0010107
:1038800042E80513002BDAD11BE000BF016851E8C4
:10389000051F026821F0400142E80513DBB1016811
:1038A00051E8051F026821F0400142E8051393B179
:1038B000016851E8051F026821F0400142E8051344
:1038C0004BB1016851E8051F026821F0400142E850
:1038D0000513002BDAD1202180F84210002101636A
:1038E000016851E8031F026821F0100142E8031348
:1038F000DBB1016851E8031F026821F0100142E8C2
:10390000031393B1016851E8031F026821F010010D
:1039100042E803134BB1016851E8031F026821F02C
:10392000100142E80313002BDAD1C16B04460846AC
:10393000FEF7ACF9204602214163818DC28D891AC0
:1039400089B202B0BDE8B040FFF7C8BE436C43F097
:1039500001034364530706D5BEF1000F03D0436C47
:1039600043F002034364930706D5BEF1000F03D072
:10397000436C43F004034364BCF1000F06D55EEAD8
:10398000050303D0436C43F008034364436C002BEE
:103990003FF4DEAE920605D525B1044602F0C4F828
:1039A000216820464969426C01F0400102F008029A
:1039B000891800F0B98000BF016851E8031F026850
:1039C00021F4907142E80313BBB3016851E8031F6F
:1039D000026821F4907142E8031373B3016851E85F
:1039E000031F026821F4907142E803132BB30168AE
:1039F00051E8031F026821F4907142E80313002B81
:103A0000DAD11AE0016851E8051F026821F00101CE
:103A100042E80513DBB1016851E8051F026821F097
:103A2000010142E8051393B1016851E8051F0268DE
:103A300021F0010142E805134BB1016851E8051F6F
:103A4000026821F0010142E80513002BDAD1016B75
:103A5000012924D1016851E8031F026821F01001F7
:103A600042E80313DBB1016851E8031F026821F04B
:103A7000100142E8031393B1016851E8031F026883
:103A800021F0100142E803134BB1016851E8031F14
:103A9000026821F0100142E80313002BDAD1202143
:103AA00080F842100021016301684969490640F12C
:103AB000C380016851E8051F026821F0400142E817
:103AC0000513DBB1016851E8051F026821F04001D0
:103AD00042E8051393B1016851E8051F026821F01F
:103AE000400142E805134BB1016851E8051F026827
:103AF00021F0400142E80513002BDAD1C16B002907
:103B000000F09A8045F61D32C0F6000204460846D1
:103B10004A63FEF7DFF800283FF41AAEE06B416B12
:103B200002B0BDE8B04008470446FFF7D9FD0020C9
:103B3000606402B0B0BD00BF891A00BF026852E8DD
:103B4000032F036822F4907243E80325BDB3026893
:103B500052E8032F036822F4907243E8032575B3FB
:103B6000026852E8032F036822F4907243E80325A9
:103B70002DB3026852E8032F036822F4907243E8E1
:103B80000325002DDAD11AE0026852E8052F0368F8
:103B900022F0010243E80525DDB1026852E8052F55
:103BA000036822F0010243E8052595B1026852E856
:103BB000052F036822F0010243E805254DB1026894
:103BC00052E8052F036822F0010243E80525002D85
:103BD000DAD1202280F8422000220263026852E8F3
:103BE000032F036822F0100243E80325DDB10268C9
:103BF00052E8032F036822F0100243E8032595B131
:103C0000026852E8032F036822F0100243E80325FC
:103C10004DB1026852E8032F036822F0100243E816
:103C20000325002DDAD1022289B2426302B0BDE839
:103C3000B040FFF753BD00BF02B0BDE8B040FFF792
:103C40004FBD00BF026A32F8023B6FF35F234B6047
:103C5000026295E5002804BF0120704710B50446B4
:103C600090F8410028B9002084F84000204600F078
:103C700063F8242084F841002068D4E90212C36864
:103C800023F40053C360036923F440531A430261D1
:103C9000D4E904231143C268194341F20C639A43E7
:103CA0001143C1604169A26921F44071114343F697
:103CB0000002C4F201029042416103D0FEF71AFCF7
:103CC00002E000BFFEF72AFCD4E900231921484393
:103CD0009900B0FBF1F048F21F5CC5F2EB1CA0FBB1
:103CE0000C314FF69C734909C0F6FF7301FB0300CA
:103CF000322303EB0010A0FB0C03F02000EA53106A
:103D000000EB0110C3F343110844906010692021B7
:103D100020F490401061506920F02A005061D06872
:103D200040F40050D0600020606484F8411084F8B2
:103D30004210606310BD0000F0B585B0006844F229
:103D40000041C4F2000188424FF00001CDE90311A7
:103D5000CDE9011122D043F60001C4F201018842ED
:103D600053D141F21800C4F202000168252441F445
:103D70008041016001684FF4806701F48041009147
:103D80000099016841F004010160006800F004003E
:103D9000009000984FF4007019E000BF41F2180045
:103DA000C4F202004168262441F4003141604168B8
:103DB000082701F4003100910099016841F00401E5
:103DC0000160006800F00400009000980420019059
:103DD000022040F6000502900320C4F2010501AE66
:103DE000049028463146FEF73FF80020CDE9020056
:103DF000284631460197FEF737F820460021002279
:103E0000FEF7DCF92046FEF7C7F905B0F0BD00006B
:103E100090F84230202B07D100294FF0010318BF42
:103E2000002A05D11846704702231846704700BF84
:103E300000230363816222218285C285436480F866
:103E400042100169006819B1C16841F48071C16014
:103E5000416941F001014161C16841F02001C16047
:103E60001846704770B50446006844F20045C4F235
:103E70000005A84213D140F2BC06C2F2000640F68B
:103E8000AC00F11CC2F200000122FFF7C1FFB078C4
:103E9000F178421C3044B27080F83A10206805F581
:103EA0007441884218BF70BD40F2BC04C2F20004E5
:103EB00040F66400211DC2F200000122FFF7A8FFB6
:103EC00060782179421C20446270017770BD000047
:103ED0002DE9F04381B0044690F84100202809D133
:103EE00000294FF0010018BF002A07D101B0BDE83A
:103EF000F08300BF022001B0BDE8F08300206064C1
:103F000021201D460E4684F841001746FEF7C0F8F2
:103F1000A784E784A1688146B1F5805F02D120695A
:103F200000285DD037460020E28C2168002A5DD051
:103F30006A1C24D0002D4AD0804600BF08680006C5
:103F400008D4FEF7A5F8A0EB0900A8427AD82168AA
:103F5000C868F3E717B117F8010B04E038F8020B53
:103F600000276FF35F204860E08C0138E084E08C2C
:103F70000028E3D13AE000BF0A68120609D40A68B3
:103F8000120606D40A6812065CBF0A685FEA02627B
:103F9000F2D51FB117F8012B05E000BF30F8022B56
:103FA00000276FF35F224A60E28C013AE284E28CE0
:103FB000002AE4D11AE000BF30F8022B00276FF38B
:103FC0005F224A60E28C013AE284E28C72B10A68B4
:103FD000120635D5002FEFD017F8012BF1E700BFFF
:103FE00000273046E28C2168002AA1D108684006EB
:103FF0001ED42DB3681C14D1086840062AD4086862
:10400000400627D40868400624D4086840064FF0CC
:104010000000F1D50DE000BF2068C16800684006CF
:1040200018D4FEF735F8A0EB0900A842F4D909E04E
:104030000020202184F8411001B0BDE8F08300BFCA
:10404000FEF726F80320202184F8411001B0BDE8D6
:10405000F08300BF0020202184F8411001B0BDE8AA
:10406000F083000070470000FEE700002DE9F043F8
:1040700081B040F60447C4F201073A6848F2A81636
:1040800022F470423A603A68C4F2212642F4405267
:104090004FF001083A60C6F8048056F87C2C0D46B3
:1040A000044682B10120C6F8008001F04BFE4FF0BB
:1040B0000009C6F8049056F87C0C20B9012001F0E4
:1040C00041FEC6F80090204600F006F900F08CF999
:1040D000284600F001F900F087F9386820F47040B4
:1040E0003860386840F440503860C6F8048056F8AC
:1040F0007C0C60B10120306001F024FE0025756069
:1041000056F87C0C18B9012001F01CFE3560601CCB
:10411000C0B200F0E1F800F067F90020002500F0DF
:1041200019F83968044621F470413960396841F45E
:1041300040503860012035607560012501F002FEB5
:1041400001203560756001F0FDFD204601B0BDE83D
:10415000F08300002DE9F04F83B040F60442C4F232
:104160000102116848F2A81521F47041116011682C
:10417000019041F400401060C4F221250020286025
:1041800002204FF0000B01F0DDFD0120286055F802
:104190007C0C0127002818BF01200290022001F0AA
:1041A000D1FD0220C5F800B001F0CCFD2F6055F81C
:1041B0007C6C022001F0C6FD0220C5F800B001F0C1
:1041C000C1FD2F6055F87C4C0220002C18BF012443
:1041D00001F0B8FD0220C5F800B001F0B3FD2F607A
:1041E00055F87C8C022001F0ADFD0220C5F800B02E
:1041F00001F0A8FD2F6055F87C9C0220B9F1000F5A
:1042000018BF4FF0010901F09DFD0220C5F800B074
:1042100001F098FD2F6055F87CAC022001F092FD72
:104220000220C5F800B001F08DFD2F6055F87CBC70
:1042300002200127BBF1000F18BF4FF0010B01F066
:1042400081FD00202860022001F07CFD2F6055F8E0
:104250007C7C022001F076FD002040F604422860BC
:10426000C4F201021068019920F4704010601068D7
:10427000B1FA81F140F440504909106001206960B1
:1042800001F060FD0120286001F05CFD002E18BFE8
:1042900001260298B8F1000F46EA40004FEA80007C
:1042A00040EA440018BF4FF001084044800040EA53
:1042B0004900BAF1000F18BF4FF0010A50448000C6
:1042C00040EA4B00002F18BF012738440021C0B23C
:1042D000296003B0BDE8F08FF0B581B040F604412D
:1042E000C4F201010A68044622F470420A600A68B6
:1042F00048F2A81542F440500860C4F22125002677
:10430000E0092E6068600120012701F01BFD0120FB
:104310002F6001F017FD01202E6001F013FDC4F3A2
:1043200080106860012001F00DFD01202F6001F078
:1043300009FD01202E6001F005FDC4F34010686006
:10434000012001F0FFFC01202F6001F0FBFC0120A7
:104350002E6001F0F7FCC4F300106860012001F04A
:10436000F1FC01202F6001F0EDFC01202E6001F036
:10437000E9FCC4F3C0006860012001F0E3FC012007
:104380002F6001F0DFFC01202E6001F0DBFCC4F3A4
:1043900080006860012001F0D5FC01202F6001F051
:1043A000D1FC01202E6001F0CDFCC4F34000686018
:1043B000012001F0C7FC01202F6001F0C3FC0120A7
:1043C0002E6001F0BFFC04F001006860012001F0E4
:1043D000B9FC01202F6001F0B5FC01202E6001B076
:1043E000BDE8F04001F0AEBC70B540F60445C4F243
:1043F0000105286848F2A81420F470402860286855
:10440000C4F2212440F400402860012601206660A7
:1044100001F098FC0120266001F094FC54F87C0C1B
:1044200050B10026322E0BD20120013601F08AFC59
:1044300054F87C0C0028F5D100202060012070BDCC
:10444000286820F470402860286840F440502860B4
:104450000020206060600120012501F073FC012034
:104460002560656001F06EFC002070BDF0B581B084
:104470001C4615460E460746FFF7F8FD0121A940E8
:1044800041EA0002002C08BF20EA01028DF8032057
:104490000DF1030338463146012200F02FF80120C8
:1044A00001B0F0BD2DE9F04182B0DDF820801D465D
:1044B00016460C460746FFF7D9FDAA1B0732FF2315
:1044C0004FF4FF7123FA02F2C5F10803B14008FA74
:1044D00003F3C6F10706DBB21143F340084018436B
:1044E0008DF807000DF1070338462146012200F040
:1044F00005F8012002B0BDE8F08100002DE9F04789
:1045000040F60446C4F2010698463368894623F40F
:1045100070413160316848F2A81541F44051C4F24D
:10452000212531600121696055F87C3C144607461D
:104530007BB10120296001F005FC4FF0000AC5F8AD
:1045400004A055F87C0C20B9012001F0FBFBC5F854
:1045500000A03846FFF7C0FEFFF746FF4846FFF7CA
:10456000BBFEFFF741FF4CB1A8F1010717F8010F9F
:10457000FFF7B2FEFFF738FF013CF7D130680124A6
:1045800020F470403060306840F4405030600020CB
:1045900028606860012001F0D5FB01202C606C6070
:1045A00001F0D0FB0120BDE8F08700002DE9F04FBD
:1045B00089B040F2A81BC2F2000B0A460791DBE962
:1045C0000014049010460691FCF7B6F840F21C0562
:1045D000C2F200052F693946FCF7B4F82146FCF712
:1045E00059F86968D5F818A0089008465146FCF7B4
:1045F000A3F8D5F81C804146FCF79EF8D5F820902A
:104600002A46AD6889F0004654693946CBE9100660
:10461000CBF84860CBF84C50FCF794F82146FCF7F7
:1046200039F88346019030463946FCF78BF85146FD
:104630000446FCF72FF8039020464146FCF72AF881
:104640000446029028463946FCF77CF84946FCF7B8
:1046500021F8059004980899FCF76EF840F21C08C0
:10466000C2F200080146049098F8000040F2A81732
:10467000C2F20007B960FCF79EFA05465846294683
:10468000FCF760F88146F86020462946FCF75AF8A6
:104690000446D8F80C60386128464946C346FCF702
:1046A00051F83146FBF7F6FF064678614846314639
:1046B000FCF77AF88246B86120463146FCF774F878
:1046C000039C804620462946C7E90789FCF73AF84B
:1046D0000546786250464946FCF734F80146019891
:1046E000FCF72AF8CBF8140050462946FCF72AF8C4
:1046F00001462046FCF720F8CBF818004046494612
:10470000FCF720F801460298FCF716F8CBF81C00DD
:1047100040462946FCF716F801460598FCF70CF8C8
:10472000049CCBF8200050462146FCF70BF8089972
:10473000FBF7B0FF786040462146FCF703F8069986
:10474000FBF7A8FF014638600798FBF7F5FFB86252
:1047500009B0BDE8F08F000010B540F28C70C2F2D5
:1047600000003C21FEF70EFC40F2D470C2F20000C3
:104770003C21FEF707FC41F20004C4F20104A4F559
:10478000806008210022FDF77DFCA4F500604FF455
:1047900000410022FDF776FC20464FF40051002234
:1047A000FDF770FC20464FF480410022BDE8104028
:1047B000FDF768BC10B582B0D0206B210622012322
:1047C000FFF754FE642001F08FFA02200090D02001
:1047D0006B21022203230324FFF764FED0201B2158
:1047E000042202230094FFF75DFE0024D0201C2148
:1047F000042202230094FFF755FED0206B210622ED
:104800000023FFF733FED0206A2105220023FFF7A3
:104810002DFED02037210122002302B0BDE8104038
:10482000FFF724BEB0B584B040F2147042F20041EC
:10483000C2F20000C4F2010100244FF460220125FD
:1048400004730475C261C0E9001484600561FDF75A
:104850003DF9002818BFFCF72DFF0920CDE901051F
:1048600040F21470C2F2000001A90394FDF78EF823
:10487000002818BFFCF71EFF04B0B0BD2DE9F04FB3
:1048800085B0002441F21800CDE90344CDE901448C
:10489000C4F20200016840F6004841F010010160D6
:1048A0000168C4F2010801F010010091009901684B
:1048B00008F5806741F0200101600168002201F0E5
:1048C00020010091009901684FF4C04541F00401B6
:1048D0000160016801F0040100910099016841F054
:1048E0000801016000684FF4C04100F0080000902A
:1048F00000983846FDF7C6FBA8F58066304649F2B9
:104900001001002249F2100BFDF7BCFB404640F6B7
:1049100038410022FDF7B6FB019501AD4FF00109CA
:104920004FF0020A38462946CDE90294CDF810A08E
:10493000FDF79AFA4FF40040CDE9010438462946C4
:104940000394FDF791FA30462946CDE901B9CDE946
:10495000034AFDF789FA4FF49070CDE9010430461F
:1049600029460394FDF780FA0020C1F22100CDE929
:10497000020940462946CDF80490FDF775FA4FF438
:1049800040600190112002A981E8110240462946A9
:10499000FDF76AFA4FF47040CDE90104404629461C
:1049A0000394FDF761FA3820CDE901094046294614
:1049B000CDE9034AFDF758FA062000210022FDF751
:1049C000FDFB0620FDF7E8FB05B0BDE8F08F000019
:1049D00010B58CB040F2447042F600420021C2F2A1
:1049E0000000C4F20102472342F20F744FF0800C22
:1049F0000B91CDE909110791CDE90511CDE903111D
:104A0000CDE90011C0E90023C0E90214C0E9041196
:104A1000C0F818C0FDF7F0FF002818BFFCF74AFEE9
:104A20004FF48050089040F24470C2F2000008A990
:104A3000FEF7D0F8002818BFFCF73CFE40F24470A7
:104A40000024C2F2000003A9CDE90344FEF718FEDA
:104A5000002818BFFCF72EFE40F24470C2F200009E
:104A60006946CDE90044FDF787FF002818BFFCF731
:104A700021FE0CB010BD000080B58CB040F28C70EF
:104A80000021C2F200004FF08042C0E900218022E4
:104A9000826103224FF6FF73CDE903210122CDE9A4
:104AA0000011C0E902130161CDE90521CDE907112B
:104AB000CDE909210B9103A9FEF75CF9002818BF85
:104AC000FCF7F8FD40F28C70C2F200006946FDF779
:104AD00053FF002818BFFCF7EDFD0CB080BD0000AF
:104AE00080B58CB040F2D47040F200420021C2F296
:104AF0000000C4F20002C0E900218022826103228A
:104B00004FF6FF73CDE903210122CDE90011C0E981
:104B100002130161CDE90521CDE90711CDE9092194
:104B20000B9103A9FEF726F9002818BFFCF7C2FD78
:104B300040F2D470C2F200006946FDF71DFF002864
:104B400018BFFCF7B7FD0CB080BD0000B0B594B045
:104B500040F6000540F61C00C4F200050021C2F238
:104B6000000041F61F420E91CDE90C110991CDE9EB
:104B70000711CDE90511CDE90311CDE90111C0E916
:104B80000051C0E90212016180218161FDF734FF0B
:104B9000002818BFFCF78EFD4FF480500B9040F6B4
:104BA0001C00C2F200000BA9FEF714F8002818BF81
:104BB000FCF780FD40F61C00C2F20000FEF7EEFBA1
:104BC000002818BFFCF776FD40F61C000024C2F256
:104BD000000008A9CDE90844FDF7CEFE002818BF63
:104BE000FCF768FD6020CDE9010440F61C00C2F22C
:104BF000000001A9082203940594FEF7CDFA0028CD
:104C000018BFFCF757FD40F61C04C2F2000401A9CE
:104C100020460C22FEF7C0FA002818BFFCF74AFD18
:104C200021680020A942CDE912001190109001D016
:104C300014B0B0BD41F21800C4F20200016841F0A6
:104C400008010160006810A900F008000F900F989B
:104C50004FF44070109002201190139005F58230AF
:104C6000FDF702F914B0B0BD80B540F6640043F61C
:104C70000001C2F20000C4F2010100234FF00C0C4D
:104C80004FF4E13280E80E00C0E90333C0E905C308
:104C9000C361FEF7DFFF002808BF80BDBDE880408C
:104CA000FCF708BD80B540F6AC0044F20041C2F20A
:104CB0000000C4F2000100234FF0040C4FF4E13275
:104CC00080E80E00C0E90333C0E905C3C361FEF705
:104CD000C1FF002808BF80BDBDE88040FCF7EABCEA
:104CE000FEE70000F0B581B00D4641F61F4100F02F
:104CF000C7FE0446284641F61F4100F0C1FE0128C8
:104D000008DB40F24C01C2F20001096801260F18CD
:104D100000220FE0B0F1FF3F04DD00270122012651
:104D200008E000BF40F24C01C2F200010968002611
:104D30000F1A012241F20005C4F20105A5F58060B9
:104D40000821FDF79FF9A5F500604FF400413246B8
:104D5000FDF798F940F61C06C2F200063068012CF7
:104D6000C76309DB40F24C00C2F200000068012278
:104D7000071900240EE000BFB4F1FF3F02DD002759
:104D8000012206E040F24C00C2F20000006800225E
:104D9000071B012428464FF40051FDF773F92846FC
:104DA0004FF480412246FDF76DF93068076401B089
:104DB000F0BD0000FEE70000B0B54FF60044AE20A5
:104DC0000021CFF6FF74002500F05AFB00200021DF
:104DD00000F056FB1020002100F052FB4020002183
:104DE00000F04EFB8120002100F04AFBCF20002183
:104DF00000F046FBA120002100F042FBC82000216A
:104E000000F03EFBA620002100F03AFBA820002184
:104E100000F036FB3F20002100F032FBD3200021C0
:104E200000F02EFB0020002100F02AFBD5200021FD
:104E300000F026FB8020002100F022FBD920002179
:104E400000F01EFBF120002100F01AFBDA20002107
:104E500000F016FB1220002100F012FBDB200021E5
:104E600000F00EFB4020002100F00AFB2020002172
:104E700000F006FB0220002100F002FB8D20002143
:104E800000F0FEFA1420002100F0FAFAA42000211C
:104E900000F0F6FAA620002100F0F2FA40F2082015
:104EA000C2F20000214600BF421811F5807182F85D
:104EB000005482F8085482F8105482F8185482F88A
:104EC000205482F8285482F8305482F8385482F8FA
:104ED000405482F8485482F8505482F8585482F86A
:104EE000605482F8685482F8705482F8785482F8DA
:104EF000805482F8885482F8905482F8985482F84A
:104F0000A05482F8A85482F8B05482F8B85482F8B9
:104F1000C05482F8C85482F8D05482F8D85482F829
:104F2000E05482F8E85482F8F05482F8F854BBD187
:104F300000212246831812F5807283F8011483F849
:104F4000091483F8111483F8191483F8211483F8D1
:104F5000291483F8311483F8391483F8411483F841
:104F6000491483F8511483F8591483F8611483F8B1
:104F7000691483F8711483F8791483F8811483F821
:104F8000891483F8911483F8991483F8A11483F891
:104F9000A91483F8B11483F8B91483F8C11483F801
:104FA000C91483F8D11483F8D91483F8E11483F871
:104FB000E91483F8F11483F8F914BBD100212246D7
:104FC000831812F5807283F8021483F80A1483F8A8
:104FD000121483F81A1483F8221483F82A1483F81D
:104FE000321483F83A1483F8421483F84A1483F88D
:104FF000521483F85A1483F8621483F86A1483F8FD
:10500000721483F87A1483F8821483F88A1483F86C
:10501000921483F89A1483F8A21483F8AA1483F8DC
:10502000B21483F8BA1483F8C21483F8CA1483F84C
:10503000D21483F8DA1483F8E21483F8EA1483F8BC
:10504000F21483F8FA14BBD100212246831812F51A
:10505000807283F8031483F80B1483F8131483F815
:105060001B1483F8231483F82B1483F8331483F868
:105070003B1483F8431483F84B1483F8531483F8D8
:105080005B1483F8631483F86B1483F8731483F848
:105090007B1483F8831483F88B1483F8931483F8B8
:1050A0009B1483F8A31483F8AB1483F8B31483F828
:1050B000BB1483F8C31483F8CB1483F8D31483F898
:1050C000DB1483F8E31483F8EB1483F8F31483F808
:1050D000FB14BBD100212246831812F5807283F89D
:1050E000041483F80C1483F8141483F81C1483F844
:1050F000241483F82C1483F8341483F83C1483F8B4
:10510000441483F84C1483F8541483F85C1483F823
:10511000641483F86C1483F8741483F87C1483F893
:10512000841483F88C1483F8941483F89C1483F803
:10513000A41483F8AC1483F8B41483F8BC1483F873
:10514000C41483F8CC1483F8D41483F8DC1483F8E3
:10515000E41483F8EC1483F8F41483F8FC14BBD142
:1051600000212246831812F5807283F8051483F813
:105170000D1483F8151483F81D1483F8251483F88F
:105180002D1483F8351483F83D1483F8451483F8FF
:105190004D1483F8551483F85D1483F8651483F86F
:1051A0006D1483F8751483F87D1483F8851483F8DF
:1051B0008D1483F8951483F89D1483F8A51483F84F
:1051C000AD1483F8B51483F8BD1483F8C51483F8BF
:1051D000CD1483F8D51483F8DD1483F8E51483F82F
:1051E000ED1483F8F51483F8FD14BBD10021224699
:1051F000831812F5807283F8061483F80E1483F86E
:10520000161483F81E1483F8261483F82E1483F8DA
:10521000361483F83E1483F8461483F84E1483F84A
:10522000561483F85E1483F8661483F86E1483F8BA
:10523000761483F87E1483F8861483F88E1483F82A
:10524000961483F89E1483F8A61483F8AE1483F89A
:10525000B61483F8BE1483F8C61483F8CE1483F80A
:10526000D61483F8DE1483F8E61483F8EE1483F87A
:10527000F61483F8FE14BBD1002100BF021914F507
:10528000807482F8071482F80F1482F8171482F8D9
:105290001F1482F8271482F82F1482F8371482F82A
:1052A0003F1482F8471482F84F1482F8571482F89A
:1052B0005F1482F8671482F86F1482F8771482F80A
:1052C0007F1482F8871482F88F1482F8971482F87A
:1052D0009F1482F8A71482F8AF1482F8B71482F8EA
:1052E000BF1482F8C71482F8CF1482F8D71482F85A
:1052F000DF1482F8E71482F8EF1482F8F71482F8CA
:10530000FF14BBD100F006F8AF200021BDE8B0408B
:1053100000F0B6B8F0B581B040F2082640F600447F
:105320000025C2F20006C4F2010400BF45F0B0003F
:10533000C0B2002100F0A4F80020002100F0A0F885
:105340001020002100F09CF8204610210122FCF7DB
:1053500099FE204620210122FCF794FE0A2000F04D
:10536000F1FC204610210022FCF78CFE0A2000F000
:10537000E9FC204620210022FCF784FE0A2000F0F0
:10538000E1FC782000F030FA204610210122FCF7E1
:1053900079FE0A2000F0D6FC204620210122FCF7ED
:1053A00071FE0A2000F0CEFC204620210022FCF7EE
:1053B00069FE0A2000F0C6FC402000F015FA2046E5
:1053C00010210122FCF75EFE0A2000F0BBFC204603
:1053D00020210122FCF756FE0A2000F0B3FC2046F3
:1053E00020210022FCF74EFE0A2000F0ABFC6FF0FB
:1053F000070700BFF019007A00F0F6F920461021E7
:105400000122FCF73FFE0A2000F09CFC20462021F0
:105410000122FCF737FE0A2000F094FC20462021F0
:105420000022FCF72FFE0A2000F08CFC0837B7F5AD
:105430007E7FDFD1204610210122FCF723FE20468B
:1054400020210122FCF71EFE0A2000F07BFC2046F2
:1054500010210022FCF716FE0A2000F073FC204603
:1054600020210022FCF70EFE0A2000F06BFC013523
:10547000082D06F101067FF459AF01B0F0BD000020
:1054800070B540F60044C4F201040E4605460029FA
:1054900020464FF010014FF0010218BF0126FCF723
:1054A000F1FD204620210122FCF7ECFD0A2000F04E
:1054B00049FC204610210022FCF7E4FD0A2000F000
:1054C00041FC204620210022FCF7DCFD0A2000F0F0
:1054D00039FC782000F088F9204610210122FCF7E1
:1054E000D1FD0A2000F02EFC204620210122FCF7ED
:1054F000C9FD0A2000F026FC204620210022FCF7EE
:10550000C1FD0A2000F01EFCB00100F06DF920463C
:1055100010210122FCF7B6FD0A2000F013FC204602
:1055200020210122FCF7AEFD0A2000F00BFC2046F2
:1055300020210022FCF7A6FD0A2000F003FC2846EB
:1055400000F052F9204610210122FCF79BFD0A20B1
:1055500000F0F8FB204620210122FCF793FD0A20F1
:1055600000F0F0FB204620210022FCF78BFD0A20F2
:1055700000F0E8FB204610210122FCF783FD2046C5
:1055800020210122FCF77EFD0A2000F0DBFB2046F3
:1055900010210022FCF776FD0A2000F0D3FB204604
:1055A00020210022FCF76EFD0A20BDE8704000F0CB
:1055B000C9BB0000704700002DE9F04F89B040F2F0
:1055C000241BC2F2000B0DF11F070BF118000BF1A9
:1055D0001E0103AA08ABCDE900B700F03BFDBBF804
:1055E0000000C00540F1898003AFB1CFFBF7DAFAC4
:1055F0004FF04251FBF7A6F8064640F25000C2F2C7
:10560000000006602046FBF7CDFA4FF04251FBF751
:1056100099F88246CBF804002846FBF7C3FA4FF00E
:105620004251FBF78FF80546CBF808003846FBF7E8
:10563000B9FA4FF04251FBF785F80746CBF80C005A
:1056400050464FF04041FBF77DF8814630463146E9
:10565000FBF720F829460646FBF774F8044648464F
:105660003946FBF76FF82146FBF714F8FBF7F1FA20
:1056700003F098FE4AF26668C4F24C084FF06632B6
:105680004346FBF776F9FBF7F7FACBF8100028460C
:105690002946FAF7FFFF044630465146FBF752F819
:1056A000064620463946FBF74DF83146FAF7F2FF39
:1056B000FBF7CFFA06460F4620462946FBF742F88D
:1056C000044648465146FBF73DF82146FBF734F8BF
:1056D0004FF07E51FAF7DEFFFBF7BBFA02460B46AE
:1056E0003046394604F0A6F84FF066324346FBF7E1
:1056F00040F9FBF7C1FACBF8140009B0BDE8F08F10
:10570000B0B5D0204121FEF7B1FC0446D0204221A3
:10571000FEF7ACFC40EA04242046FBF74CFA0546B1
:105720002046CFF6FF70FBF73DFA0021C4F2AA3104
:10573000B4F5004F98BF2846FBF736F8FBF789FA17
:1057400047F2A40244F2D733C0F63D22C4F242032A
:10575000FBF768F80023C4F224030022FBF709F9E1
:10576000FBF78AFAFBF73DFAB0BD000010B540F236
:10577000D470C2F20000D0F800E040F28803C2F218
:105780000003DEF82400996944F6206402B2D3F8DD
:1057900010C06143891A6144504219610021C3E974
:1057A0000200CEF8241010BD80B540F28C70C2F219
:1057B0000000016840F28802486AC2F20002D2E9A1
:1057C000083C00B2D2F82CE0C31A936244F620637E
:1057D0000EFB0303D06163441062536200224A62ED
:1057E00080BD000070470000B0B540F60044C4F230
:1057F00001040546C20920461021FCF743FC0A209B
:1058000000F0A0FA204620210122FCF73BFC0A20F0
:1058100000F098FA204620210022FCF733FCC5F363
:10582000801220461021FCF72DFC0A2000F08AFA95
:10583000204620210122FCF725FC0A2000F082FAF4
:10584000204620210022FCF71DFCC5F34012204613
:105850001021FCF717FC0A2000F074FA20462021E2
:105860000122FCF70FFC0A2000F06CFA20462021F0
:105870000022FCF707FCC5F3001220461021FCF7BC
:1058800001FC0A2000F05EFA204620210122FCF7EC
:10589000F9FB0A2000F056FA204620210022FCF7EE
:1058A000F1FBC5F3C00220461021FCF7EBFB0A20F8
:1058B00000F048FA204620210122FCF7E3FB0A20F1
:1058C00000F040FA204620210022FCF7DBFBC5F364
:1058D000800220461021FCF7D5FB0A2000F032FAA6
:1058E000204620210122FCF7CDFB0A2000F02AFAF5
:1058F000204620210022FCF7C5FBC5F340022046CC
:105900001021FCF7BFFB0A2000F01CFA20462021E2
:105910000122FCF7B7FB0A2000F014FA20462021F0
:105920000022FCF7AFFB05F0010220461021FCF736
:10593000A9FB0A2000F006FA204620210122FCF7EC
:10594000A1FB0A2000F0FEF9204620210022BDE83C
:10595000B040FCF797BB0000FCF7A0BB704700000D
:1059600040F24470C2F20000FDF76CBB40F28C7054
:10597000C2F20000FDF766BB40F2D470C2F2000034
:10598000FDF760BB80B5D0F800E0DEF80800D1E993
:1059900000C320F0770023F0070210434FEA3313CF
:1059A00040EA0C00072BCEF808000CD80020DFE8F6
:1059B00003F005050505071D370D00BF80BD00BFBD
:1059C000BCF1050F46D1012080BD00BFD1E9020224
:1059D0000969DEF80830104323F47F4340EA0120D0
:1059E0001843CEF80800002080BD00BF8868096910
:1059F000DEF82020DEF8203022F00A0223F0010336
:105A0000CEF82030DEF81830104323F0F00343EADC
:105A10000111CEF81810CEF82000002080BD00BF84
:105A200088680969DEF82020DEF8203022F0A00224
:105A300023F01003CEF82030DEF8183042EA0010D0
:105A400023F4704343EA0131CEF81810CEF8200059
:105A5000002080BDDEF82000DEF8202022F00102C8
:105A6000CEF82020DEF81820096922F0F00242EA80
:105A70000111CEF81810CEF82000002080BD0000E3
:105A80004A429042C8BF02468842C8BF0A461046F2
:105A90007047000070B502F043FD0138172811D897
:105AA0000024CCF24004DFE800F01D0D1B0D0D0FAB
:105AB0000D0D0D0D0D0F0D0D0D130D0D0D0D0D0D0E
:105AC0000D1700BF00240DE04FF07E540AE000BF28
:105AD0000024C4F2400405E04FF0804402E000BF1F
